{
  "contractName": "PlanterV2",
  "abi": [
    {
      "anonymous": false,
      "inputs": [
        {
          "indexed": false,
          "internalType": "address",
          "name": "planter",
          "type": "address"
        }
      ],
      "name": "AcceptedByOrganization",
      "type": "event"
    },
    {
      "anonymous": false,
      "inputs": [
        {
          "indexed": false,
          "internalType": "address",
          "name": "organization",
          "type": "address"
        }
      ],
      "name": "OrganizationJoined",
      "type": "event"
    },
    {
      "anonymous": false,
      "inputs": [
        {
          "indexed": false,
          "internalType": "address",
          "name": "planter",
          "type": "address"
        }
      ],
      "name": "OrganizationMemberShareUpdated",
      "type": "event"
    },
    {
      "anonymous": false,
      "inputs": [
        {
          "indexed": false,
          "internalType": "address",
          "name": "planter",
          "type": "address"
        }
      ],
      "name": "PlanterJoined",
      "type": "event"
    },
    {
      "anonymous": false,
      "inputs": [
        {
          "indexed": false,
          "internalType": "address",
          "name": "planter",
          "type": "address"
        }
      ],
      "name": "PlanterUpdated",
      "type": "event"
    },
    {
      "anonymous": false,
      "inputs": [
        {
          "indexed": false,
          "internalType": "address",
          "name": "planter",
          "type": "address"
        }
      ],
      "name": "RejectedByOrganization",
      "type": "event"
    },
    {
      "inputs": [],
      "name": "accessRestriction",
      "outputs": [
        {
          "internalType": "contract IAccessRestriction",
          "name": "",
          "type": "address"
        }
      ],
      "stateMutability": "view",
      "type": "function",
      "constant": true
    },
    {
      "inputs": [
        {
          "internalType": "address",
          "name": "",
          "type": "address"
        }
      ],
      "name": "invitedBy",
      "outputs": [
        {
          "internalType": "address",
          "name": "",
          "type": "address"
        }
      ],
      "stateMutability": "view",
      "type": "function",
      "constant": true
    },
    {
      "inputs": [],
      "name": "isPlanter",
      "outputs": [
        {
          "internalType": "bool",
          "name": "",
          "type": "bool"
        }
      ],
      "stateMutability": "view",
      "type": "function",
      "constant": true
    },
    {
      "inputs": [
        {
          "internalType": "address",
          "name": "forwarder",
          "type": "address"
        }
      ],
      "name": "isTrustedForwarder",
      "outputs": [
        {
          "internalType": "bool",
          "name": "",
          "type": "bool"
        }
      ],
      "stateMutability": "view",
      "type": "function",
      "constant": true
    },
    {
      "inputs": [
        {
          "internalType": "address",
          "name": "",
          "type": "address"
        }
      ],
      "name": "memberOf",
      "outputs": [
        {
          "internalType": "address",
          "name": "",
          "type": "address"
        }
      ],
      "stateMutability": "view",
      "type": "function",
      "constant": true
    },
    {
      "inputs": [
        {
          "internalType": "address",
          "name": "",
          "type": "address"
        },
        {
          "internalType": "address",
          "name": "",
          "type": "address"
        }
      ],
      "name": "organizationMemberShare",
      "outputs": [
        {
          "internalType": "uint256",
          "name": "",
          "type": "uint256"
        }
      ],
      "stateMutability": "view",
      "type": "function",
      "constant": true
    },
    {
      "inputs": [
        {
          "internalType": "address",
          "name": "",
          "type": "address"
        }
      ],
      "name": "planters",
      "outputs": [
        {
          "internalType": "uint8",
          "name": "planterType",
          "type": "uint8"
        },
        {
          "internalType": "uint8",
          "name": "status",
          "type": "uint8"
        },
        {
          "internalType": "uint16",
          "name": "countryCode",
          "type": "uint16"
        },
        {
          "internalType": "uint32",
          "name": "score",
          "type": "uint32"
        },
        {
          "internalType": "uint32",
          "name": "supplyCap",
          "type": "uint32"
        },
        {
          "internalType": "uint32",
          "name": "plantedCount",
          "type": "uint32"
        },
        {
          "internalType": "int64",
          "name": "longitude",
          "type": "int64"
        },
        {
          "internalType": "int64",
          "name": "latitude",
          "type": "int64"
        }
      ],
      "stateMutability": "view",
      "type": "function",
      "constant": true
    },
    {
      "inputs": [],
      "name": "trustedForwarder",
      "outputs": [
        {
          "internalType": "address",
          "name": "",
          "type": "address"
        }
      ],
      "stateMutability": "view",
      "type": "function",
      "constant": true
    },
    {
      "inputs": [],
      "name": "versionRecipient",
      "outputs": [
        {
          "internalType": "string",
          "name": "",
          "type": "string"
        }
      ],
      "stateMutability": "pure",
      "type": "function",
      "constant": true
    },
    {
      "inputs": [
        {
          "internalType": "address",
          "name": "_accessRestrictionAddress",
          "type": "address"
        }
      ],
      "name": "initialize",
      "outputs": [],
      "stateMutability": "nonpayable",
      "type": "function"
    },
    {
      "inputs": [
        {
          "internalType": "address",
          "name": "_address",
          "type": "address"
        }
      ],
      "name": "setTrustedForwarder",
      "outputs": [],
      "stateMutability": "nonpayable",
      "type": "function"
    },
    {
      "inputs": [
        {
          "internalType": "uint8",
          "name": "_planterType",
          "type": "uint8"
        },
        {
          "internalType": "int64",
          "name": "_longitude",
          "type": "int64"
        },
        {
          "internalType": "int64",
          "name": "_latitude",
          "type": "int64"
        },
        {
          "internalType": "uint16",
          "name": "_countryCode",
          "type": "uint16"
        },
        {
          "internalType": "address",
          "name": "_invitedBy",
          "type": "address"
        },
        {
          "internalType": "address",
          "name": "_organization",
          "type": "address"
        }
      ],
      "name": "join",
      "outputs": [],
      "stateMutability": "nonpayable",
      "type": "function"
    },
    {
      "inputs": [
        {
          "internalType": "address",
          "name": "_planter",
          "type": "address"
        },
        {
          "internalType": "uint8",
          "name": "_planterType",
          "type": "uint8"
        },
        {
          "internalType": "int64",
          "name": "_longitude",
          "type": "int64"
        },
        {
          "internalType": "int64",
          "name": "_latitude",
          "type": "int64"
        },
        {
          "internalType": "uint16",
          "name": "_countryCode",
          "type": "uint16"
        },
        {
          "internalType": "address",
          "name": "_invitedBy",
          "type": "address"
        },
        {
          "internalType": "address",
          "name": "_organization",
          "type": "address"
        }
      ],
      "name": "joinByAdmin",
      "outputs": [],
      "stateMutability": "nonpayable",
      "type": "function"
    },
    {
      "inputs": [
        {
          "internalType": "address",
          "name": "_organization",
          "type": "address"
        },
        {
          "internalType": "int64",
          "name": "_longitude",
          "type": "int64"
        },
        {
          "internalType": "int64",
          "name": "_latitude",
          "type": "int64"
        },
        {
          "internalType": "uint16",
          "name": "_countryCode",
          "type": "uint16"
        },
        {
          "internalType": "uint32",
          "name": "_supplyCap",
          "type": "uint32"
        },
        {
          "internalType": "address",
          "name": "_invitedBy",
          "type": "address"
        }
      ],
      "name": "joinOrganization",
      "outputs": [],
      "stateMutability": "nonpayable",
      "type": "function"
    },
    {
      "inputs": [
        {
          "internalType": "uint8",
          "name": "_planterType",
          "type": "uint8"
        },
        {
          "internalType": "address",
          "name": "_organization",
          "type": "address"
        }
      ],
      "name": "updatePlanterType",
      "outputs": [],
      "stateMutability": "nonpayable",
      "type": "function"
    },
    {
      "inputs": [
        {
          "internalType": "address",
          "name": "_planter",
          "type": "address"
        },
        {
          "internalType": "bool",
          "name": "_acceptance",
          "type": "bool"
        }
      ],
      "name": "acceptPlanterByOrganization",
      "outputs": [],
      "stateMutability": "nonpayable",
      "type": "function"
    },
    {
      "inputs": [
        {
          "internalType": "address",
          "name": "_planter",
          "type": "address"
        },
        {
          "internalType": "uint32",
          "name": "_supplyCap",
          "type": "uint32"
        }
      ],
      "name": "updateSupplyCap",
      "outputs": [],
      "stateMutability": "nonpayable",
      "type": "function"
    },
    {
      "inputs": [
        {
          "internalType": "address",
          "name": "_planter",
          "type": "address"
        },
        {
          "internalType": "address",
          "name": "_assignedPlanterAddress",
          "type": "address"
        }
      ],
      "name": "manageAssignedTreePermission",
      "outputs": [
        {
          "internalType": "bool",
          "name": "",
          "type": "bool"
        }
      ],
      "stateMutability": "nonpayable",
      "type": "function"
    },
    {
      "inputs": [
        {
          "internalType": "address",
          "name": "_planter",
          "type": "address"
        },
        {
          "internalType": "uint256",
          "name": "_organizationMemberShareAmount",
          "type": "uint256"
        }
      ],
      "name": "updateOrganizationMemberShare",
      "outputs": [],
      "stateMutability": "nonpayable",
      "type": "function"
    },
    {
      "inputs": [
        {
          "internalType": "address",
          "name": "_planter",
          "type": "address"
        }
      ],
      "name": "reducePlantedCount",
      "outputs": [],
      "stateMutability": "nonpayable",
      "type": "function"
    },
    {
      "inputs": [
        {
          "internalType": "address",
          "name": "_planter",
          "type": "address"
        }
      ],
      "name": "manageTreePermission",
      "outputs": [
        {
          "internalType": "bool",
          "name": "",
          "type": "bool"
        }
      ],
      "stateMutability": "nonpayable",
      "type": "function"
    },
    {
      "inputs": [
        {
          "internalType": "address",
          "name": "_planter",
          "type": "address"
        },
        {
          "internalType": "uint32",
          "name": "_count",
          "type": "uint32"
        }
      ],
      "name": "manageTreePermissionBatch",
      "outputs": [
        {
          "internalType": "bool",
          "name": "",
          "type": "bool"
        }
      ],
      "stateMutability": "nonpayable",
      "type": "function"
    },
    {
      "inputs": [
        {
          "internalType": "address",
          "name": "_planter",
          "type": "address"
        }
      ],
      "name": "getOrganizationMemberData",
      "outputs": [
        {
          "internalType": "bool",
          "name": "",
          "type": "bool"
        },
        {
          "internalType": "address",
          "name": "",
          "type": "address"
        },
        {
          "internalType": "address",
          "name": "",
          "type": "address"
        },
        {
          "internalType": "uint256",
          "name": "",
          "type": "uint256"
        }
      ],
      "stateMutability": "view",
      "type": "function",
      "constant": true
    },
    {
      "inputs": [
        {
          "internalType": "address",
          "name": "_planter",
          "type": "address"
        }
      ],
      "name": "canAssignTree",
      "outputs": [
        {
          "internalType": "bool",
          "name": "",
          "type": "bool"
        }
      ],
      "stateMutability": "view",
      "type": "function",
      "constant": true
    }
  ],
  "bytecode": "0x608060405234801561001057600080fd5b506139e5806100206000396000f3fe608060405234801561001057600080fd5b50600436106101985760003560e01c80637da0a877116100e3578063c670d5c61161008c578063da74222811610066578063da74222814610558578063f1f8d7da1461056b578063fc5c2c7f146105a157600080fd5b8063c670d5c6146103ed578063d3a907d61461043f578063d6762c4a1461053857600080fd5b8063a1f74f0e116100bd578063a1f74f0e146103b4578063aac1664d146103c7578063c4d66de8146103da57600080fd5b80637da0a877146103685780638ff242bb1461038e57806394bfbff9146103a157600080fd5b80633d9b75df11610145578063516849551161011f578063516849551461030d578063572b6c05146103205780635eb5f4a11461035557600080fd5b80633d9b75df14610282578063486ff0cd146102955780634dbdb44a146102d457600080fd5b806333fd9ea11161017657806333fd9ea114610201578063390b5373146102145780633b4c98911461022757600080fd5b806303dc8deb1461019d5780630649d930146101d95780632aee70a3146101ec575b600080fd5b6000546101c490760100000000000000000000000000000000000000000000900460ff1681565b60405190151581526020015b60405180910390f35b6101c46101e7366004613664565b6105b4565b6101ff6101fa366004613796565b6107c8565b005b6101ff61020f366004613649565b610ebc565b6101ff610222366004613855565b61109c565b61025d610235366004613649565b60046020526000908152604090205473ffffffffffffffffffffffffffffffffffffffff1681565b60405173ffffffffffffffffffffffffffffffffffffffff90911681526020016101d0565b6101c4610290366004613649565b61176f565b604080518082018252601d81527f322e322e302b747265656a65722e6972656c6179726563697069656e74000000602082015290516101d091906138af565b6102ff6102e2366004613664565b600560209081526000928352604080842090915290825290205481565b6040519081526020016101d0565b6101ff61031b366004613742565b6117b8565b6101c461032e366004613649565b60005462010000900473ffffffffffffffffffffffffffffffffffffffff90811691161490565b6101ff610363366004613697565b611aed565b60005461025d9062010000900473ffffffffffffffffffffffffffffffffffffffff1681565b6101c461039c36600461376c565b611e27565b6101ff6103af36600461376c565b612089565b6101c46103c2366004613649565b6123ac565b6101ff6103d53660046136ce565b6125cc565b6101ff6103e8366004613649565b612b3f565b6104006103fb366004613649565b612d6f565b6040516101d09493929190931515845273ffffffffffffffffffffffffffffffffffffffff928316602085015291166040830152606082015260800190565b6104e261044d366004613649565b60026020526000908152604090205460ff8082169161010081049091169061ffff620100008204169063ffffffff64010000000082048116916801000000000000000081048216916c01000000000000000000000000820416907001000000000000000000000000000000008104600790810b9178010000000000000000000000000000000000000000000000009004900b88565b6040805160ff998a16815298909716602089015261ffff9095169587019590955263ffffffff928316606087015290821660808601521660a0840152600791820b60c0840152900b60e0820152610100016101d0565b60015461025d9073ffffffffffffffffffffffffffffffffffffffff1681565b6101ff610566366004613649565b612e94565b61025d610579366004613649565b60036020526000908152604090205473ffffffffffffffffffffffffffffffffffffffff1681565b6101ff6105af366004613839565b613003565b60015460009073ffffffffffffffffffffffffffffffffffffffff1663ebe6a6f36105dd613572565b6040517fffffffff0000000000000000000000000000000000000000000000000000000060e084901b16815273ffffffffffffffffffffffffffffffffffffffff909116600482015260240160006040518083038186803b15801561064157600080fd5b505afa158015610655573d6000803e3d6000fd5b5050505073ffffffffffffffffffffffffffffffffffffffff83166000908152600260205260409020805460ff16156107bc57805460ff61010090910416600114801561070f57508273ffffffffffffffffffffffffffffffffffffffff168473ffffffffffffffffffffffffffffffffffffffff16148061070f5750805460ff16600314801561070f575073ffffffffffffffffffffffffffffffffffffffff8481166000908152600460205260409020548116908416145b156107bc5780546001908290600c9061073f9084906c01000000000000000000000000900463ffffffff16613922565b82546101009290920a63ffffffff818102199093169183160217909155825468010000000000000000810482166c010000000000000000000000009091049091161090506107b25780547fffffffffffffffffffffffffffffffffffffffffffffffffffffffffffff00ff166102001781555b60019150506107c2565b60009150505b92915050565b600160009054906101000a900473ffffffffffffffffffffffffffffffffffffffff1673ffffffffffffffffffffffffffffffffffffffff16634d868f986040518163ffffffff1660e01b815260040160006040518083038186803b15801561083057600080fd5b505afa158015610844573d6000803e3d6000fd5b505060015473ffffffffffffffffffffffffffffffffffffffff16915063c4d2a31b9050610870613572565b6040517fffffffff0000000000000000000000000000000000000000000000000000000060e084901b16815273ffffffffffffffffffffffffffffffffffffffff909116600482015260240160006040518083038186803b1580156108d457600080fd5b505afa1580156108e8573d6000803e3d6000fd5b50506001546040517f2ea8de7f00000000000000000000000000000000000000000000000000000000815273ffffffffffffffffffffffffffffffffffffffff8b811660048301529091169250632ea8de7f915060240160206040518083038186803b15801561095757600080fd5b505afa15801561096b573d6000803e3d6000fd5b505050506040513d601f19601f8201168201806040525081019061098f919061381c565b80156109c1575073ffffffffffffffffffffffffffffffffffffffff871660009081526002602052604090205460ff16155b610a2c576040517f08c379a000000000000000000000000000000000000000000000000000000000815260206004820152601460248201527f4578697374206f72206e6f7420706c616e74657200000000000000000000000060448201526064015b60405180910390fd5b8560ff1660011480610a4157508560ff166003145b610aa7576040517f08c379a000000000000000000000000000000000000000000000000000000000815260206004820152601360248201527f496e76616c696420706c616e74657254797065000000000000000000000000006044820152606401610a23565b8560ff1660031415610b9a5773ffffffffffffffffffffffffffffffffffffffff811660009081526002602081905260409091205460ff1614610b46576040517f08c379a000000000000000000000000000000000000000000000000000000000815260206004820152601460248201527f496e76616c6964206f7267616e697a6174696f6e0000000000000000000000006044820152606401610a23565b73ffffffffffffffffffffffffffffffffffffffff878116600090815260046020526040902080547fffffffffffffffffffffffff0000000000000000000000000000000000000000169183169190911790555b73ffffffffffffffffffffffffffffffffffffffff821615610d4a578673ffffffffffffffffffffffffffffffffffffffff168273ffffffffffffffffffffffffffffffffffffffff1614158015610c9057506001546040517f2ea8de7f00000000000000000000000000000000000000000000000000000000815273ffffffffffffffffffffffffffffffffffffffff848116600483015290911690632ea8de7f9060240160206040518083038186803b158015610c5857600080fd5b505afa158015610c6c573d6000803e3d6000fd5b505050506040513d601f19601f82011682018060405250810190610c90919061381c565b610cf6576040517f08c379a000000000000000000000000000000000000000000000000000000000815260206004820152601160248201527f496e76616c696420696e766974656442790000000000000000000000000000006044820152606401610a23565b73ffffffffffffffffffffffffffffffffffffffff878116600090815260036020526040902080547fffffffffffffffffffffffff0000000000000000000000000000000000000000169184169190911790555b73ffffffffffffffffffffffffffffffffffffffff8716600081815260026020908152604091829020805461010060ff8c167fffffffffffffffffffffffffffffffffffffffffffffffffffffffffffff000090921691909117177fffffffffffffffffffffffffffffffffffffffff00000000ffffffff0000ffff166201000061ffff8916027fffffffffffffffffffffffffffffffffffffffff00000000ffffffffffffffff161768640000000000000000176fffffffffffffffffffffffffffffffff1670010000000000000000000000000000000060078b810b67ffffffffffffffff9081169290920277ffffffffffffffffffffffffffffffffffffffffffffffff16929092177801000000000000000000000000000000000000000000000000928b900b9190911691909102178155915192835290917f62e552a7fa5dc9fa8f99c995acac83e51a3f5f91af2dccd5c0da81697e86ec6f91015b60405180910390a15050505050505050565b73ffffffffffffffffffffffffffffffffffffffff8116600090815260026020526040902054819060ff16610f4d576040517f08c379a000000000000000000000000000000000000000000000000000000000815260206004820152601160248201527f506c616e746572206e6f742065786973740000000000000000000000000000006044820152606401610a23565b60015473ffffffffffffffffffffffffffffffffffffffff1663ebe6a6f3610f73613572565b6040517fffffffff0000000000000000000000000000000000000000000000000000000060e084901b16815273ffffffffffffffffffffffffffffffffffffffff909116600482015260240160006040518083038186803b158015610fd757600080fd5b505afa158015610feb573d6000803e3d6000fd5b5050505073ffffffffffffffffffffffffffffffffffffffff8216600090815260026020526040902080546001908290600c9061103f9084906c01000000000000000000000000900463ffffffff1661394a565b825461010092830a63ffffffff8181021990921692909116021790915582540460ff166002141590506110975780547fffffffffffffffffffffffffffffffffffffffffffffffffffffffffffff00ff166101001781555b505050565b600160009054906101000a900473ffffffffffffffffffffffffffffffffffffffff1673ffffffffffffffffffffffffffffffffffffffff16634d868f986040518163ffffffff1660e01b815260040160006040518083038186803b15801561110457600080fd5b505afa158015611118573d6000803e3d6000fd5b505060015473ffffffffffffffffffffffffffffffffffffffff169150632ea8de7f9050611144613572565b6040517fffffffff0000000000000000000000000000000000000000000000000000000060e084901b16815273ffffffffffffffffffffffffffffffffffffffff909116600482015260240160206040518083038186803b1580156111a857600080fd5b505afa1580156111bc573d6000803e3d6000fd5b505050506040513d601f19601f820116820180604052508101906111e0919061381c565b801561121f5750600260006111f3613572565b73ffffffffffffffffffffffffffffffffffffffff16815260208101919091526040016000205460ff16155b611285576040517f08c379a000000000000000000000000000000000000000000000000000000000815260206004820152601460248201527f4578697374206f72206e6f7420706c616e7465720000000000000000000000006044820152606401610a23565b8560ff166001148061129a57508560ff166003145b611300576040517f08c379a000000000000000000000000000000000000000000000000000000000815260206004820152601360248201527f496e76616c696420706c616e74657254797065000000000000000000000000006044820152606401610a23565b8560ff166003141561139f5773ffffffffffffffffffffffffffffffffffffffff811660009081526002602081905260409091205460ff161461139f576040517f08c379a000000000000000000000000000000000000000000000000000000000815260206004820152601460248201527f496e76616c6964206f7267616e697a6174696f6e0000000000000000000000006044820152606401610a23565b73ffffffffffffffffffffffffffffffffffffffff821615611566576113c3613572565b73ffffffffffffffffffffffffffffffffffffffff168273ffffffffffffffffffffffffffffffffffffffff161415801561149c57506001546040517f2ea8de7f00000000000000000000000000000000000000000000000000000000815273ffffffffffffffffffffffffffffffffffffffff848116600483015290911690632ea8de7f9060240160206040518083038186803b15801561146457600080fd5b505afa158015611478573d6000803e3d6000fd5b505050506040513d601f19601f8201168201806040525081019061149c919061381c565b611502576040517f08c379a000000000000000000000000000000000000000000000000000000000815260206004820152601160248201527f496e76616c696420696e766974656442790000000000000000000000000000006044820152606401610a23565b816003600061150f613572565b73ffffffffffffffffffffffffffffffffffffffff9081168252602082019290925260400160002080547fffffffffffffffffffffffff000000000000000000000000000000000000000016929091169190911790555b6001600360ff881614156115fe578160046000611581613572565b73ffffffffffffffffffffffffffffffffffffffff1673ffffffffffffffffffffffffffffffffffffffff16815260200190815260200160002060006101000a81548173ffffffffffffffffffffffffffffffffffffffff021916908373ffffffffffffffffffffffffffffffffffffffff160217905550600090505b60006002600061160c613572565b73ffffffffffffffffffffffffffffffffffffffff1673ffffffffffffffffffffffffffffffffffffffff1681526020019081526020016000209050878160000160006101000a81548160ff021916908360ff160217905550818160000160016101000a81548160ff021916908360ff160217905550848160000160026101000a81548161ffff021916908361ffff16021790555060648160000160086101000a81548163ffffffff021916908363ffffffff160217905550868160000160106101000a81548167ffffffffffffffff021916908360070b67ffffffffffffffff160217905550858160000160186101000a81548167ffffffffffffffff021916908360070b67ffffffffffffffff1602179055507f62e552a7fa5dc9fa8f99c995acac83e51a3f5f91af2dccd5c0da81697e86ec6f61174a613572565b60405173ffffffffffffffffffffffffffffffffffffffff9091168152602001610eaa565b73ffffffffffffffffffffffffffffffffffffffff81166000908152600260205260408120805460ff61010090910416600114806117b15750805460ff166002145b9392505050565b600160009054906101000a900473ffffffffffffffffffffffffffffffffffffffff1673ffffffffffffffffffffffffffffffffffffffff16634d868f986040518163ffffffff1660e01b815260040160006040518083038186803b15801561182057600080fd5b505afa158015611834573d6000803e3d6000fd5b5050505060026000611844613572565b73ffffffffffffffffffffffffffffffffffffffff16815260208101919091526040016000205460ff166002146118d7576040517f08c379a000000000000000000000000000000000000000000000000000000000815260206004820152601860248201527f506c616e746572206e6f74206f7267616e697a6174696f6e00000000000000006044820152606401610a23565b73ffffffffffffffffffffffffffffffffffffffff8216600090815260026020526040902054610100900460ff1661196b576040517f08c379a000000000000000000000000000000000000000000000000000000000815260206004820152601660248201527f496e76616c696420706c616e74657220737461747573000000000000000000006044820152606401610a23565b611973613572565b73ffffffffffffffffffffffffffffffffffffffff8381166000908152600460205260409020548116911614611a05576040517f08c379a000000000000000000000000000000000000000000000000000000000815260206004820152600c60248201527f4e6f74206d656d6265724f6600000000000000000000000000000000000000006044820152606401610a23565b6127118110611a70576040517f08c379a000000000000000000000000000000000000000000000000000000000815260206004820152600d60248201527f496e76616c6964207368617265000000000000000000000000000000000000006044820152606401610a23565b8060056000611a7d613572565b73ffffffffffffffffffffffffffffffffffffffff90811682526020808301939093526040918201600090812091871680825291845282902093909355519182527fafec87f3f5eafec8bf3e82ecc83c1a5c4e745339521735e5372b757d3905eeec910160405180910390a15050565b600160009054906101000a900473ffffffffffffffffffffffffffffffffffffffff1673ffffffffffffffffffffffffffffffffffffffff16634d868f986040518163ffffffff1660e01b815260040160006040518083038186803b158015611b5557600080fd5b505afa158015611b69573d6000803e3d6000fd5b5050505060026000611b79613572565b73ffffffffffffffffffffffffffffffffffffffff16815260208101919091526040016000205460ff16600214611c0c576040517f08c379a000000000000000000000000000000000000000000000000000000000815260206004820152601860248201527f506c616e746572206e6f74206f7267616e697a6174696f6e00000000000000006044820152606401610a23565b611c14613572565b73ffffffffffffffffffffffffffffffffffffffff83811660009081526004602052604090205481169116148015611c77575073ffffffffffffffffffffffffffffffffffffffff8216600090815260026020526040902054610100900460ff16155b611cdd576040517f08c379a000000000000000000000000000000000000000000000000000000000815260206004820152601260248201527f52657175657374206e6f742065786973747300000000000000000000000000006044820152606401610a23565b73ffffffffffffffffffffffffffffffffffffffff821660009081526002602052604090208115611d815780547fffffffffffffffffffffffffffffffffffffffffffffffffffffffffffff00ff1661010017815560405173ffffffffffffffffffffffffffffffffffffffff841681527f051b4b22140b33d543a888666188b0b245a0bec5a5fbad9a7056a5466bad0f48906020015b60405180910390a1505050565b80547fffffffffffffffffffffffffffffffffffffffffffffffffffffffffffff00001661010117815573ffffffffffffffffffffffffffffffffffffffff831660008181526004602090815260409182902080547fffffffffffffffffffffffff000000000000000000000000000000000000000016905590519182527f79101b3eb6902749f086c56104914b9b6a60917c4a7bdccb2291d6d13d61468b9101611d74565b73ffffffffffffffffffffffffffffffffffffffff8216600090815260026020526040812054839060ff16611eb8576040517f08c379a000000000000000000000000000000000000000000000000000000000815260206004820152601160248201527f506c616e746572206e6f742065786973740000000000000000000000000000006044820152606401610a23565b60015473ffffffffffffffffffffffffffffffffffffffff1663ebe6a6f3611ede613572565b6040517fffffffff0000000000000000000000000000000000000000000000000000000060e084901b16815273ffffffffffffffffffffffffffffffffffffffff909116600482015260240160006040518083038186803b158015611f4257600080fd5b505afa158015611f56573d6000803e3d6000fd5b5050505073ffffffffffffffffffffffffffffffffffffffff841660009081526002602052604090208054600161010090910460ff16148015611fcf5750805463ffffffff680100000000000000008204811691611fc69187916c01000000000000000000000000900416613922565b63ffffffff1611155b1561207c57805484908290600c90611ffe9084906c01000000000000000000000000900463ffffffff16613922565b82546101009290920a63ffffffff818102199093169183160217909155825468010000000000000000810482166c01000000000000000000000000909104909116141590506120725780547fffffffffffffffffffffffffffffffffffffffffffffffffffffffffffff00ff166102001781555b6001925050612082565b60009250505b5092915050565b600160009054906101000a900473ffffffffffffffffffffffffffffffffffffffff1673ffffffffffffffffffffffffffffffffffffffff16634d868f986040518163ffffffff1660e01b815260040160006040518083038186803b1580156120f157600080fd5b505afa158015612105573d6000803e3d6000fd5b505060015473ffffffffffffffffffffffffffffffffffffffff16915063c4d2a31b9050612131613572565b6040517fffffffff0000000000000000000000000000000000000000000000000000000060e084901b16815273ffffffffffffffffffffffffffffffffffffffff909116600482015260240160006040518083038186803b15801561219557600080fd5b505afa1580156121a9573d6000803e3d6000fd5b50505073ffffffffffffffffffffffffffffffffffffffff831660009081526002602052604090205483915060ff1661223e576040517f08c379a000000000000000000000000000000000000000000000000000000000815260206004820152601160248201527f506c616e746572206e6f742065786973740000000000000000000000000000006044820152606401610a23565b73ffffffffffffffffffffffffffffffffffffffff83166000908152600260205260409020805463ffffffff6c010000000000000000000000009091048116908416116122e7576040517f08c379a000000000000000000000000000000000000000000000000000000000815260206004820152601160248201527f496e76616c696420737570706c794361700000000000000000000000000000006044820152606401610a23565b80547fffffffffffffffffffffffffffffffffffffffff00000000ffffffffffffffff166801000000000000000063ffffffff85160217808255610100900460ff166002141561235c5780547fffffffffffffffffffffffffffffffffffffffffffffffffffffffffffff00ff166101001781555b60405173ffffffffffffffffffffffffffffffffffffffff851681527f4f4c4d7a603e71ff6fc5aca4b16d1aee54c290be7eb4b17a72535c562724ce76906020015b60405180910390a150505050565b73ffffffffffffffffffffffffffffffffffffffff8116600090815260026020526040812054829060ff1661243d576040517f08c379a000000000000000000000000000000000000000000000000000000000815260206004820152601160248201527f506c616e746572206e6f742065786973740000000000000000000000000000006044820152606401610a23565b60015473ffffffffffffffffffffffffffffffffffffffff1663ebe6a6f3612463613572565b6040517fffffffff0000000000000000000000000000000000000000000000000000000060e084901b16815273ffffffffffffffffffffffffffffffffffffffff909116600482015260240160006040518083038186803b1580156124c757600080fd5b505afa1580156124db573d6000803e3d6000fd5b5050505073ffffffffffffffffffffffffffffffffffffffff831660009081526002602052604090208054600161010090910460ff1614156125c05780546001908290600c906125429084906c01000000000000000000000000900463ffffffff16613922565b82546101009290920a63ffffffff818102199093169183160217909155825468010000000000000000810482166c01000000000000000000000000909104909116141590506125b65780547fffffffffffffffffffffffffffffffffffffffffffffffffffffffffffff00ff166102001781555b60019250506125c6565b60009250505b50919050565b600160009054906101000a900473ffffffffffffffffffffffffffffffffffffffff1673ffffffffffffffffffffffffffffffffffffffff16634d868f986040518163ffffffff1660e01b815260040160006040518083038186803b15801561263457600080fd5b505afa158015612648573d6000803e3d6000fd5b505060015473ffffffffffffffffffffffffffffffffffffffff16915063c4d2a31b9050612674613572565b6040517fffffffff0000000000000000000000000000000000000000000000000000000060e084901b16815273ffffffffffffffffffffffffffffffffffffffff909116600482015260240160006040518083038186803b1580156126d857600080fd5b505afa1580156126ec573d6000803e3d6000fd5b5050505073ffffffffffffffffffffffffffffffffffffffff861660009081526002602052604090205460ff161580156127c457506001546040517f2ea8de7f00000000000000000000000000000000000000000000000000000000815273ffffffffffffffffffffffffffffffffffffffff888116600483015290911690632ea8de7f9060240160206040518083038186803b15801561278c57600080fd5b505afa1580156127a0573d6000803e3d6000fd5b505050506040513d601f19601f820116820180604052508101906127c4919061381c565b61282a576040517f08c379a000000000000000000000000000000000000000000000000000000000815260206004820152601460248201527f4578697374206f72206e6f7420706c616e7465720000000000000000000000006044820152606401610a23565b73ffffffffffffffffffffffffffffffffffffffff8116156129e15761284e613572565b73ffffffffffffffffffffffffffffffffffffffff168173ffffffffffffffffffffffffffffffffffffffff161415801561292757506001546040517f2ea8de7f00000000000000000000000000000000000000000000000000000000815273ffffffffffffffffffffffffffffffffffffffff838116600483015290911690632ea8de7f9060240160206040518083038186803b1580156128ef57600080fd5b505afa158015612903573d6000803e3d6000fd5b505050506040513d601f19601f82011682018060405250810190612927919061381c565b61298d576040517f08c379a000000000000000000000000000000000000000000000000000000000815260206004820152601160248201527f496e76616c696420696e766974656442790000000000000000000000000000006044820152606401610a23565b73ffffffffffffffffffffffffffffffffffffffff868116600090815260036020526040902080547fffffffffffffffffffffffff0000000000000000000000000000000000000000169183169190911790555b73ffffffffffffffffffffffffffffffffffffffff861660008181526002602090815260409182902080546101027fffffffffffffffffffffffffffffffffffffffffffffffffffffffff000000009091166201000061ffff8a160217177fffffffffffffffff0000000000000000ffffffff00000000ffffffffffffffff166801000000000000000063ffffffff8816027fffffffffffffffff0000000000000000ffffffffffffffffffffffffffffffff161770010000000000000000000000000000000060078b810b67ffffffffffffffff908116929092029290921777ffffffffffffffffffffffffffffffffffffffffffffffff167801000000000000000000000000000000000000000000000000928b900b9190911691909102178155915192835290917f0683c1983fc01a6c39efeeb42a844c7e32245a86701889a8113c677d17a1b243910160405180910390a150505050505050565b600054610100900460ff16612b5a5760005460ff1615612b5e565b303b155b612bea576040517f08c379a000000000000000000000000000000000000000000000000000000000815260206004820152602e60248201527f496e697469616c697a61626c653a20636f6e747261637420697320616c72656160448201527f647920696e697469616c697a65640000000000000000000000000000000000006064820152608401610a23565b600054610100900460ff16158015612c2957600080547fffffffffffffffffffffffffffffffffffffffffffffffffffffffffffff0000166101011790555b60008290508073ffffffffffffffffffffffffffffffffffffffff1663ba84fd696040518163ffffffff1660e01b815260040160206040518083038186803b158015612c7457600080fd5b505afa158015612c88573d6000803e3d6000fd5b505050506040513d601f19601f82011682018060405250810190612cac919061381c565b612cb557600080fd5b600080547fffffffffffffffffff00ffffffffffffffffffffffffffffffffffffffffffff167601000000000000000000000000000000000000000000001790556001805473ffffffffffffffffffffffffffffffffffffffff9092167fffffffffffffffffffffffff00000000000000000000000000000000000000009092169190911790558015612d6b57600080547fffffffffffffffffffffffffffffffffffffffffffffffffffffffffffff00ff1690555b5050565b73ffffffffffffffffffffffffffffffffffffffff81166000908152600260205260408120805482918291829190610100900460ff1660041480612db55750805460ff16155b15612dce57600080600080945094509450945050612e8d565b805460ff1660011480612de55750805460ff166002145b80612df757508054610100900460ff16155b15612e365750505073ffffffffffffffffffffffffffffffffffffffff8084166000908152600360205260408120546001945090925016612710612e8d565b5050505073ffffffffffffffffffffffffffffffffffffffff828116600081815260046020908152604080832054600383528184205490861680855260058452828520958552949092529091205460019450919216905b9193509193565b60015473ffffffffffffffffffffffffffffffffffffffff16638413ec14612eba613572565b6040517fffffffff0000000000000000000000000000000000000000000000000000000060e084901b16815273ffffffffffffffffffffffffffffffffffffffff909116600482015260240160006040518083038186803b158015612f1e57600080fd5b505afa158015612f32573d6000803e3d6000fd5b50839250505073ffffffffffffffffffffffffffffffffffffffff8116612fb5576040517f08c379a000000000000000000000000000000000000000000000000000000000815260206004820152600f60248201527f496e76616c6964206164647265737300000000000000000000000000000000006044820152606401610a23565b506000805473ffffffffffffffffffffffffffffffffffffffff90921662010000027fffffffffffffffffffff0000000000000000000000000000000000000000ffff909216919091179055565b600160009054906101000a900473ffffffffffffffffffffffffffffffffffffffff1673ffffffffffffffffffffffffffffffffffffffff16634d868f986040518163ffffffff1660e01b815260040160006040518083038186803b15801561306b57600080fd5b505afa15801561307f573d6000803e3d6000fd5b5050505061308b613572565b73ffffffffffffffffffffffffffffffffffffffff811660009081526002602052604090205460ff1661311a576040517f08c379a000000000000000000000000000000000000000000000000000000000815260206004820152601160248201527f506c616e746572206e6f742065786973740000000000000000000000000000006044820152606401610a23565b8260ff166001148061312f57508260ff166003145b613195576040517f08c379a000000000000000000000000000000000000000000000000000000000815260206004820152601360248201527f496e76616c696420706c616e74657254797065000000000000000000000000006044820152606401610a23565b6000600260006131a3613572565b73ffffffffffffffffffffffffffffffffffffffff16815260208101919091526040016000208054909150610100900460ff1615806131ec5750805460ff610100909104166001145b613252576040517f08c379a000000000000000000000000000000000000000000000000000000000815260206004820152601660248201527f496e76616c696420706c616e74657220737461747573000000000000000000006044820152606401610a23565b805460ff16600214156132c1576040517f08c379a000000000000000000000000000000000000000000000000000000000815260206004820152601660248201527f43616c6c6572206973206f7267616e697a6174696f6e000000000000000000006044820152606401610a23565b8360ff16600314156133ee5773ffffffffffffffffffffffffffffffffffffffff831660009081526002602081905260409091205460ff1614613360576040517f08c379a000000000000000000000000000000000000000000000000000000000815260206004820152601460248201527f496e76616c6964206f7267616e697a6174696f6e0000000000000000000000006044820152606401610a23565b826004600061336d613572565b73ffffffffffffffffffffffffffffffffffffffff9081168252602082019290925260400160002080547fffffffffffffffffffffffff0000000000000000000000000000000000000000169290911691909117905580547fffffffffffffffffffffffffffffffffffffffffffffffffffffffffffff00ff1681556134f9565b805460ff1660031461345c576040517f08c379a000000000000000000000000000000000000000000000000000000000815260206004820152601160248201527f506c616e74657220747970652073616d650000000000000000000000000000006044820152606401610a23565b60006004600061346a613572565b73ffffffffffffffffffffffffffffffffffffffff9081168252602082019290925260400160002080547fffffffffffffffffffffffff000000000000000000000000000000000000000016929091169190911790558054610100900460ff166134f95780547fffffffffffffffffffffffffffffffffffffffffffffffffffffffffffff00ff166101001781555b80547fffffffffffffffffffffffffffffffffffffffffffffffffffffffffffffff001660ff85161781557f4f4c4d7a603e71ff6fc5aca4b16d1aee54c290be7eb4b17a72535c562724ce7661354d613572565b60405173ffffffffffffffffffffffffffffffffffffffff909116815260200161239e565b6000601436108015906135a2575060005462010000900473ffffffffffffffffffffffffffffffffffffffff1633145b156135d257507fffffffffffffffffffffffffffffffffffffffffffffffffffffffffffffffec36013560601c90565b503390565b803573ffffffffffffffffffffffffffffffffffffffff811681146135fb57600080fd5b919050565b8035600781900b81146135fb57600080fd5b803561ffff811681146135fb57600080fd5b803563ffffffff811681146135fb57600080fd5b803560ff811681146135fb57600080fd5b60006020828403121561365b57600080fd5b6117b1826135d7565b6000806040838503121561367757600080fd5b613680836135d7565b915061368e602084016135d7565b90509250929050565b600080604083850312156136aa57600080fd5b6136b3836135d7565b915060208301356136c38161399e565b809150509250929050565b60008060008060008060c087890312156136e757600080fd5b6136f0876135d7565b95506136fe60208801613600565b945061370c60408801613600565b935061371a60608801613612565b925061372860808801613624565b915061373660a088016135d7565b90509295509295509295565b6000806040838503121561375557600080fd5b61375e836135d7565b946020939093013593505050565b6000806040838503121561377f57600080fd5b613788836135d7565b915061368e60208401613624565b600080600080600080600060e0888a0312156137b157600080fd5b6137ba886135d7565b96506137c860208901613638565b95506137d660408901613600565b94506137e460608901613600565b93506137f260808901613612565b925061380060a089016135d7565b915061380e60c089016135d7565b905092959891949750929550565b60006020828403121561382e57600080fd5b81516117b18161399e565b6000806040838503121561384c57600080fd5b61368083613638565b60008060008060008060c0878903121561386e57600080fd5b61387787613638565b955061388560208801613600565b945061389360408801613600565b93506138a160608801613612565b9250613728608088016135d7565b600060208083528351808285015260005b818110156138dc578581018301518582016040015282016138c0565b818111156138ee576000604083870101525b50601f017fffffffffffffffffffffffffffffffffffffffffffffffffffffffffffffffe016929092016040019392505050565b600063ffffffff8083168185168083038211156139415761394161396f565b01949350505050565b600063ffffffff838116908316818110156139675761396761396f565b039392505050565b7f4e487b7100000000000000000000000000000000000000000000000000000000600052601160045260246000fd5b80151581146139ac57600080fd5b5056fea2646970667358221220b3ffc6a9e1a0c58227436749ce18775e04282ff16e44d5c4825b13d72ec713f564736f6c63430008060033",
  "immutableReferences": {},
  "source": "// SPDX-License-Identifier: GPL-3.0\n\npragma solidity ^0.8.6;\n\nimport \"@openzeppelin/contracts-upgradeable/proxy/utils/Initializable.sol\";\n\nimport \"@openzeppelin/contracts-upgradeable/utils/math/SafeCastUpgradeable.sol\";\nimport \"../access/IAccessRestriction.sol\";\nimport \"../gsn/RelayRecipient.sol\";\nimport \"./IPlanterV2.sol\";\n\n/** @title PlanterV2 contract */\ncontract PlanterV2 is Initializable, RelayRecipient, IPlanterV2 {\n    using SafeCastUpgradeable for uint256;\n\n    struct PlanterData {\n        uint8 planterType;\n        uint8 status;\n        uint16 countryCode;\n        uint32 score;\n        uint32 supplyCap;\n        uint32 plantedCount;\n        int64 longitude;\n        int64 latitude;\n    }\n\n    /** NOTE {isPlanter} set inside the initialize to {true} */\n    bool public override isPlanter;\n\n    IAccessRestriction public accessRestriction;\n\n    /** NOTE mapping of planter address to PlanterData */\n    mapping(address => PlanterData) public override planters;\n\n    /** NOTE mapping of planter address to address of invitedBy */\n    mapping(address => address) public override invitedBy;\n\n    /** NOTE mapping of planter address to organization address that planter is member of it */\n    mapping(address => address) public override memberOf;\n\n    /** NOTE mapping of organization address to mapping of planter address to portionValue */\n    mapping(address => mapping(address => uint256))\n        public\n        override organizationMemberShare;\n\n    /** NOTE modifier to check msg.sender has admin role */\n    modifier onlyAdmin() {\n        accessRestriction.ifAdmin(_msgSender());\n        _;\n    }\n\n    /** NOTE modifier to check msg.sender has data manager role */\n    modifier onlyDataManager() {\n        accessRestriction.ifDataManager(_msgSender());\n        _;\n    }\n\n    /** NOTE modifier for check if function is not paused */\n    modifier ifNotPaused() {\n        accessRestriction.ifNotPaused();\n        _;\n    }\n\n    /** NOTE modifier for check _planter is exist*/\n    modifier existPlanter(address _planter) {\n        require(planters[_planter].planterType > 0, \"Planter not exist\");\n        _;\n    }\n\n    /** NOTE modifier for check valid address */\n    modifier validAddress(address _address) {\n        require(_address != address(0), \"Invalid address\");\n        _;\n    }\n\n    /** NOTE modifier for check msg.sender planterType is organization*/\n    modifier onlyOrganization() {\n        require(\n            planters[_msgSender()].planterType == 2,\n            \"Planter not organization\"\n        );\n        _;\n    }\n\n    /** NOTE modifier for check msg.sender has TreejerContract role*/\n    modifier onlyTreejerContract() {\n        accessRestriction.ifTreejerContract(_msgSender());\n        _;\n    }\n\n    /// @inheritdoc IPlanterV2\n    function initialize(address _accessRestrictionAddress)\n        external\n        override\n        initializer\n    {\n        IAccessRestriction candidateContract = IAccessRestriction(\n            _accessRestrictionAddress\n        );\n        require(candidateContract.isAccessRestriction());\n        isPlanter = true;\n        accessRestriction = candidateContract;\n    }\n\n    /// @inheritdoc IPlanterV2\n    function setTrustedForwarder(address _address)\n        external\n        override\n        onlyAdmin\n        validAddress(_address)\n    {\n        trustedForwarder = _address;\n    }\n\n    /// @inheritdoc IPlanterV2\n    function join(\n        uint8 _planterType,\n        int64 _longitude,\n        int64 _latitude,\n        uint16 _countryCode,\n        address _invitedBy,\n        address _organization\n    ) external override ifNotPaused {\n        require(\n            accessRestriction.isPlanter(_msgSender()) &&\n                planters[_msgSender()].planterType == 0,\n            \"Exist or not planter\"\n        );\n\n        require(_planterType == 1 || _planterType == 3, \"Invalid planterType\");\n\n        if (_planterType == 3) {\n            require(\n                planters[_organization].planterType == 2,\n                \"Invalid organization\"\n            );\n        }\n\n        if (_invitedBy != address(0)) {\n            require(\n                _invitedBy != _msgSender() &&\n                    accessRestriction.isPlanter(_invitedBy),\n                \"Invalid invitedBy\"\n            );\n\n            invitedBy[_msgSender()] = _invitedBy;\n        }\n\n        uint8 status = 1;\n\n        if (_planterType == 3) {\n            memberOf[_msgSender()] = _organization;\n            status = 0;\n        }\n\n        PlanterData storage planterData = planters[_msgSender()];\n\n        planterData.planterType = _planterType;\n        planterData.status = status;\n        planterData.countryCode = _countryCode;\n        planterData.supplyCap = 100;\n        planterData.longitude = _longitude;\n        planterData.latitude = _latitude;\n\n        emit PlanterJoined(_msgSender());\n    }\n\n    /// @inheritdoc IPlanterV2\n    function joinByAdmin(\n        address _planter,\n        uint8 _planterType,\n        int64 _longitude,\n        int64 _latitude,\n        uint16 _countryCode,\n        address _invitedBy,\n        address _organization\n    ) external override ifNotPaused onlyDataManager {\n        require(\n            accessRestriction.isPlanter(_planter) &&\n                planters[_planter].planterType == 0,\n            \"Exist or not planter\"\n        );\n\n        require(_planterType == 1 || _planterType == 3, \"Invalid planterType\");\n\n        if (_planterType == 3) {\n            require(\n                planters[_organization].planterType == 2,\n                \"Invalid organization\"\n            );\n\n            memberOf[_planter] = _organization;\n        }\n\n        if (_invitedBy != address(0)) {\n            require(\n                _invitedBy != _planter &&\n                    accessRestriction.isPlanter(_invitedBy),\n                \"Invalid invitedBy\"\n            );\n\n            invitedBy[_planter] = _invitedBy;\n        }\n\n        PlanterData storage planterData = planters[_planter];\n\n        planterData.planterType = _planterType;\n        planterData.status = 1;\n        planterData.countryCode = _countryCode;\n        planterData.supplyCap = 100;\n        planterData.longitude = _longitude;\n        planterData.latitude = _latitude;\n\n        emit PlanterJoined(_planter);\n    }\n\n    /// @inheritdoc IPlanterV2\n    function joinOrganization(\n        address _organization,\n        int64 _longitude,\n        int64 _latitude,\n        uint16 _countryCode,\n        uint32 _supplyCap,\n        address _invitedBy\n    ) external override ifNotPaused onlyDataManager {\n        require(\n            planters[_organization].planterType == 0 &&\n                accessRestriction.isPlanter(_organization),\n            \"Exist or not planter\"\n        );\n\n        if (_invitedBy != address(0)) {\n            require(\n                _invitedBy != _msgSender() &&\n                    accessRestriction.isPlanter(_invitedBy),\n                \"Invalid invitedBy\"\n            );\n\n            invitedBy[_organization] = _invitedBy;\n        }\n\n        PlanterData storage planterData = planters[_organization];\n\n        planterData.planterType = 2;\n        planterData.status = 1;\n        planterData.countryCode = _countryCode;\n        planterData.supplyCap = _supplyCap;\n        planterData.longitude = _longitude;\n        planterData.latitude = _latitude;\n\n        emit OrganizationJoined(_organization);\n    }\n\n    /// @inheritdoc IPlanterV2\n    function updatePlanterType(uint8 _planterType, address _organization)\n        external\n        override\n        ifNotPaused\n        existPlanter(_msgSender())\n    {\n        require(_planterType == 1 || _planterType == 3, \"Invalid planterType\");\n\n        PlanterData storage planterData = planters[_msgSender()];\n\n        require(\n            planterData.status == 0 || planterData.status == 1,\n            \"Invalid planter status\"\n        );\n\n        require(planterData.planterType != 2, \"Caller is organization\");\n\n        if (_planterType == 3) {\n            require(\n                planters[_organization].planterType == 2,\n                \"Invalid organization\"\n            );\n\n            memberOf[_msgSender()] = _organization;\n\n            planterData.status = 0;\n        } else {\n            require(planterData.planterType == 3, \"Planter type same\");\n\n            memberOf[_msgSender()] = address(0);\n\n            if (planterData.status == 0) {\n                planterData.status = 1;\n            }\n        }\n\n        planterData.planterType = _planterType;\n\n        emit PlanterUpdated(_msgSender());\n    }\n\n    /// @inheritdoc IPlanterV2\n    function acceptPlanterByOrganization(address _planter, bool _acceptance)\n        external\n        override\n        ifNotPaused\n        onlyOrganization\n    {\n        require(\n            memberOf[_planter] == _msgSender() &&\n                planters[_planter].status == 0,\n            \"Request not exists\"\n        );\n\n        PlanterData storage planterData = planters[_planter];\n\n        if (_acceptance) {\n            planterData.status = 1;\n\n            emit AcceptedByOrganization(_planter);\n        } else {\n            planterData.status = 1;\n            planterData.planterType = 1;\n            memberOf[_planter] = address(0);\n\n            emit RejectedByOrganization(_planter);\n        }\n    }\n\n    /// @inheritdoc IPlanterV2\n    function updateSupplyCap(address _planter, uint32 _supplyCap)\n        external\n        override\n        ifNotPaused\n        onlyDataManager\n        existPlanter(_planter)\n    {\n        PlanterData storage planterData = planters[_planter];\n        require(_supplyCap > planterData.plantedCount, \"Invalid supplyCap\");\n        planterData.supplyCap = _supplyCap;\n        if (planterData.status == 2) {\n            planterData.status = 1;\n        }\n        emit PlanterUpdated(_planter);\n    }\n\n    /// @inheritdoc IPlanterV2\n    function manageAssignedTreePermission(\n        address _planter,\n        address _assignedPlanterAddress\n    ) external override onlyTreejerContract returns (bool) {\n        PlanterData storage planterData = planters[_planter];\n        if (planterData.planterType > 0) {\n            if (\n                planterData.status == 1 &&\n                (_planter == _assignedPlanterAddress ||\n                    (planterData.planterType == 3 &&\n                        memberOf[_planter] == _assignedPlanterAddress))\n            ) {\n                planterData.plantedCount += 1;\n\n                if (planterData.plantedCount >= planterData.supplyCap) {\n                    planterData.status = 2;\n                }\n                return true;\n            }\n        }\n\n        return false;\n    }\n\n    /// @inheritdoc IPlanterV2\n    function updateOrganizationMemberShare(\n        address _planter,\n        uint256 _organizationMemberShareAmount\n    ) external override ifNotPaused onlyOrganization {\n        require(planters[_planter].status > 0, \"Invalid planter status\");\n        require(memberOf[_planter] == _msgSender(), \"Not memberOf\");\n        require(_organizationMemberShareAmount < 10001, \"Invalid share\");\n\n        organizationMemberShare[_msgSender()][\n            _planter\n        ] = _organizationMemberShareAmount;\n\n        emit OrganizationMemberShareUpdated(_planter);\n    }\n\n    /// @inheritdoc IPlanterV2\n    function reducePlantedCount(address _planter)\n        external\n        override\n        existPlanter(_planter)\n        onlyTreejerContract\n    {\n        PlanterData storage planterData = planters[_planter];\n\n        planterData.plantedCount -= 1;\n\n        if (planterData.status == 2) {\n            planterData.status = 1;\n        }\n    }\n\n    /// @inheritdoc IPlanterV2\n    function manageTreePermission(address _planter)\n        external\n        override\n        existPlanter(_planter)\n        onlyTreejerContract\n        returns (bool)\n    {\n        PlanterData storage planterData = planters[_planter];\n\n        if (planterData.status == 1) {\n            planterData.plantedCount += 1;\n\n            if (planterData.plantedCount == planterData.supplyCap) {\n                planterData.status = 2;\n            }\n            return true;\n        }\n        return false;\n    }\n\n    //---------------------------------CHANGED\n\n    /// @inheritdoc IPlanterV2\n    function manageTreePermissionBatch(address _planter, uint32 _count)\n        external\n        override\n        existPlanter(_planter)\n        onlyTreejerContract\n        returns (bool)\n    {\n        PlanterData storage planterData = planters[_planter];\n\n        if (\n            planterData.status == 1 &&\n            planterData.plantedCount + _count <= planterData.supplyCap\n        ) {\n            planterData.plantedCount += _count;\n\n            if (planterData.plantedCount == planterData.supplyCap) {\n                planterData.status = 2;\n            }\n            return true;\n        }\n        return false;\n    }\n\n    /// @inheritdoc IPlanterV2\n    function getOrganizationMemberData(address _planter)\n        external\n        view\n        override\n        returns (\n            bool,\n            address,\n            address,\n            uint256\n        )\n    {\n        PlanterData storage planterData = planters[_planter];\n        if (planterData.status == 4 || planterData.planterType == 0) {\n            return (false, address(0), address(0), 0);\n        } else {\n            if (\n                planterData.planterType == 1 ||\n                planterData.planterType == 2 ||\n                planterData.status == 0\n            ) {\n                return (true, address(0), invitedBy[_planter], 10000);\n            } else {\n                return (\n                    true,\n                    memberOf[_planter],\n                    invitedBy[_planter],\n                    organizationMemberShare[memberOf[_planter]][_planter]\n                );\n            }\n        }\n    }\n\n    /// @inheritdoc IPlanterV2\n    function canAssignTree(address _planter)\n        external\n        view\n        override\n        returns (bool)\n    {\n        PlanterData storage planterData = planters[_planter];\n\n        return planterData.status == 1 || planterData.planterType == 2;\n    }\n}\n",
  "sourcePath": "/home/ali/Desktop/work/treejer/contract/contracts/planter/PlanterV2.sol",
  "compiler": {
    "name": "solc",
    "version": "0.8.6+commit.11564f7e.Emscripten.clang"
  },
  "schemaVersion": "3.4.6",
  "updatedAt": "2023-02-11T12:59:33.284Z",
  "networkType": "ethereum",
  "devdoc": {
    "kind": "dev",
    "methods": {
      "acceptPlanterByOrganization(address,bool)": {
        "details": "organization can accept planter to be it's member or reject NOTE emit a {AcceptedByOrganization} or {RejectedByOrganization} event",
        "params": {
          "_acceptance": "accept or reject",
          "_planter": "address of planter"
        }
      },
      "canAssignTree(address)": {
        "details": "check allowance to assign tree to planter",
        "params": {
          "_planter": "address of assignee planter"
        },
        "returns": {
          "_0": "true in case of active planter or orgnization planter and false otherwise"
        }
      },
      "getOrganizationMemberData(address)": {
        "details": "return organization member data",
        "params": {
          "_planter": "address of organization member planter to get data"
        },
        "returns": {
          "_0": "true in case of valid planter",
          "_1": "address of organization that {_planter} is member of it.",
          "_2": "address of referrer",
          "_3": "share of {_plnater}"
        }
      },
      "initialize(address)": {
        "details": "initialize AccessRestriction contract and set true for isPlanter",
        "params": {
          "_accessRestrictionAddress": "set to the address of AccessRestriction contract"
        }
      },
      "join(uint8,int64,int64,uint16,address,address)": {
        "details": "based on {_planterType} a planter can join as individual planter or member of an organization NOTE member of organization planter status set to pendding and wait to be accepted by organization. NOTE emit a {PlanterJoined} event",
        "params": {
          "_countryCode": "country code",
          "_invitedBy": "address of referrer",
          "_latitude": "latitude value",
          "_longitude": "longitude value",
          "_organization": "address of organization to be member of",
          "_planterType": "type of planter: 1 for individual and 3 for member of organization"
        }
      },
      "joinByAdmin(address,uint8,int64,int64,uint16,address,address)": {
        "details": "admin add a individual planter or member of an organization planter based on {_planterType} NOTE member of organization planter status set to active and no need for accepting by organization NOTE emit a {PlanterJoined} event",
        "params": {
          "_countryCode": "country code",
          "_invitedBy": "address of referrer",
          "_latitude": "latitude value",
          "_longitude": "longitude value",
          "_organization": "address of organization to be member of",
          "_planter": "address of planter",
          "_planterType": "type of planter: 1 for individual and 3 for member of organization"
        }
      },
      "joinOrganization(address,int64,int64,uint16,uint32,address)": {
        "details": "admin add a planter as organization (planterType 2) so planterType 3 can be member of these planters. NOTE emit a {OrganizationJoined} event",
        "params": {
          "_countryCode": "country code",
          "_invitedBy": "address of referrer",
          "_latitude": "latitude value",
          "_longitude": "longitude value",
          "_organization": "address of organization planter",
          "_supplyCap": "planting supplyCap of organization planter"
        }
      },
      "manageAssignedTreePermission(address,address)": {
        "details": "return if a planter can plant a tree and increase planter plantedCount 1 time.",
        "params": {
          "_assignedPlanterAddress": "address of planter that tree assigned to",
          "_planter": "address of planter who want to plant tree"
        },
        "returns": {
          "_0": "if a planter can plant a tree or not"
        }
      },
      "manageTreePermission(address)": {
        "details": "check that planter {_planter} can plant regular tree NOTE if plantedCount reach to supplyCap status of planter set to full (value of full is '2')",
        "params": {
          "_planter": "address of planter"
        },
        "returns": {
          "_0": "true in case of planter status is active (value of active is '1')"
        }
      },
      "reducePlantedCount(address)": {
        "details": "when planting of {_planter} rejected, plantedCount of {_planter} must reduce by 1 and if planter status is full, set it to active.",
        "params": {
          "_planter": "address of planter"
        }
      },
      "setTrustedForwarder(address)": {
        "details": "set {_address} to trusted forwarder "
      },
      "updateOrganizationMemberShare(address,uint256)": {
        "details": "oragnization can update the share of its members NOTE emit a {OrganizationMemberShareUpdated} event",
        "params": {
          "_organizationMemberShareAmount": "member share value",
          "_planter": "address of planter"
        }
      },
      "updatePlanterType(uint8,address)": {
        "details": "planter with planterType 1 , 3 can update their planterType NOTE planterType 3 (member of organization) can change to planterType 1 (individual planter) with input value {_planterType} of 1 and zeroAddress as {_organization} or choose other organization to be member of with input value {_planterType} of 3 and {_organization}. NOTE planterType 1 can only change to planterType 3 with input value {_planter} of 3 and {_organization} if planter planterType 3 choose another oraganization or planter with planterType 1 change it's planterType to 3,they must be accepted by the organization to be an active planter NOTE emit a {PlanterUpdated} event",
        "params": {
          "_organization": "address of organization",
          "_planterType": "type of planter"
        }
      },
      "updateSupplyCap(address,uint32)": {
        "details": "admin update supplyCap of planter NOTE emit a {PlanterUpdated} event",
        "params": {
          "_planter": "address of planter to update supplyCap",
          "_supplyCap": "supplyCap that set to planter supplyCap"
        }
      },
      "versionRecipient()": {
        "details": "return version recipient "
      }
    },
    "title": "PlanterV2 contract ",
    "version": 1
  },
  "userdoc": {
    "kind": "user",
    "methods": {
      "invitedBy(address)": {
        "notice": "NOTE mapping of planter address to address of invitedBy "
      },
      "isPlanter()": {
        "notice": "NOTE {isPlanter} set inside the initialize to {true} "
      },
      "isTrustedForwarder(address)": {
        "notice": "return if the forwarder is trusted to forward relayed transactions to us. the forwarder is required to verify the sender's signature, and verify the call is not a replay."
      },
      "memberOf(address)": {
        "notice": "NOTE mapping of planter address to organization address that planter is member of it "
      },
      "organizationMemberShare(address,address)": {
        "notice": "NOTE mapping of organization address to mapping of planter address to portionValue "
      },
      "planters(address)": {
        "notice": "NOTE mapping of planter address to PlanterData "
      }
    },
    "version": 1
  }
}