{
    "contractName": "TreeFactoryV2",
    "abi": [
        {
            "anonymous": false,
            "inputs": [
                {
                    "indexed": false,
                    "internalType": "uint256",
                    "name": "treeId",
                    "type": "uint256"
                }
            ],
            "name": "AssignedTreeVerified",
            "type": "event"
        },
        {
            "anonymous": false,
            "inputs": [
                {
                    "indexed": false,
                    "internalType": "uint256",
                    "name": "lastRegualarTreeId",
                    "type": "uint256"
                }
            ],
            "name": "LastRegualarTreeIdUpdated",
            "type": "event"
        },
        {
            "anonymous": false,
            "inputs": [
                {
                    "indexed": false,
                    "internalType": "uint256",
                    "name": "treeId",
                    "type": "uint256"
                }
            ],
            "name": "TreeAssigned",
            "type": "event"
        },
        {
            "anonymous": false,
            "inputs": [
                {
                    "indexed": false,
                    "internalType": "uint256",
                    "name": "treeId",
                    "type": "uint256"
                }
            ],
            "name": "TreeListed",
            "type": "event"
        },
        {
            "anonymous": false,
            "inputs": [
                {
                    "indexed": false,
                    "internalType": "uint256",
                    "name": "treeId",
                    "type": "uint256"
                },
                {
                    "indexed": false,
                    "internalType": "string",
                    "name": "treeSpecs",
                    "type": "string"
                }
            ],
            "name": "TreeSpecsUpdated",
            "type": "event"
        },
        {
            "anonymous": false,
            "inputs": [],
            "name": "TreeStatusBatchReset",
            "type": "event"
        },
        {
            "anonymous": false,
            "inputs": [],
            "name": "TreeUpdateIntervalChanged",
            "type": "event"
        },
        {
            "anonymous": false,
            "inputs": [
                {
                    "indexed": false,
                    "internalType": "uint256",
                    "name": "treeId",
                    "type": "uint256"
                }
            ],
            "name": "TreeUpdatedVerified",
            "type": "event"
        },
        {
            "anonymous": false,
            "inputs": [
                {
                    "indexed": false,
                    "internalType": "uint256",
                    "name": "treeId",
                    "type": "uint256"
                }
            ],
            "name": "TreeVerified",
            "type": "event"
        },
        {
            "inputs": [],
            "name": "PLANT_ASSIGN_TREE_TYPE_HASH",
            "outputs": [
                {
                    "internalType": "bytes32",
                    "name": "",
                    "type": "bytes32"
                }
            ],
            "stateMutability": "view",
            "type": "function",
            "constant": true
        },
        {
            "inputs": [],
            "name": "PLANT_TREE_TYPE_HASH",
            "outputs": [
                {
                    "internalType": "bytes32",
                    "name": "",
                    "type": "bytes32"
                }
            ],
            "stateMutability": "view",
            "type": "function",
            "constant": true
        },
        {
            "inputs": [],
            "name": "VERIFY_UPDATE_TYPE_HASH",
            "outputs": [
                {
                    "internalType": "bytes32",
                    "name": "",
                    "type": "bytes32"
                }
            ],
            "stateMutability": "view",
            "type": "function",
            "constant": true
        },
        {
            "inputs": [],
            "name": "accessRestriction",
            "outputs": [
                {
                    "internalType": "contract IAccessRestriction",
                    "name": "",
                    "type": "address"
                }
            ],
            "stateMutability": "view",
            "type": "function",
            "constant": true
        },
        {
            "inputs": [],
            "name": "isTreeFactory",
            "outputs": [
                {
                    "internalType": "bool",
                    "name": "",
                    "type": "bool"
                }
            ],
            "stateMutability": "view",
            "type": "function",
            "constant": true
        },
        {
            "inputs": [],
            "name": "lastRegualarTreeId",
            "outputs": [
                {
                    "internalType": "uint256",
                    "name": "",
                    "type": "uint256"
                }
            ],
            "stateMutability": "view",
            "type": "function",
            "constant": true
        },
        {
            "inputs": [],
            "name": "planterContract",
            "outputs": [
                {
                    "internalType": "contract IPlanterV2",
                    "name": "",
                    "type": "address"
                }
            ],
            "stateMutability": "view",
            "type": "function",
            "constant": true
        },
        {
            "inputs": [],
            "name": "planterFund",
            "outputs": [
                {
                    "internalType": "contract IPlanterFund",
                    "name": "",
                    "type": "address"
                }
            ],
            "stateMutability": "view",
            "type": "function",
            "constant": true
        },
        {
            "inputs": [
                {
                    "internalType": "address",
                    "name": "",
                    "type": "address"
                }
            ],
            "name": "plantersNonce",
            "outputs": [
                {
                    "internalType": "uint256",
                    "name": "",
                    "type": "uint256"
                }
            ],
            "stateMutability": "view",
            "type": "function",
            "constant": true
        },
        {
            "inputs": [
                {
                    "internalType": "uint256",
                    "name": "",
                    "type": "uint256"
                }
            ],
            "name": "tempTrees",
            "outputs": [
                {
                    "internalType": "uint64",
                    "name": "birthDate",
                    "type": "uint64"
                },
                {
                    "internalType": "uint64",
                    "name": "plantDate",
                    "type": "uint64"
                },
                {
                    "internalType": "uint64",
                    "name": "countryCode",
                    "type": "uint64"
                },
                {
                    "internalType": "uint64",
                    "name": "otherData",
                    "type": "uint64"
                },
                {
                    "internalType": "address",
                    "name": "planter",
                    "type": "address"
                },
                {
                    "internalType": "string",
                    "name": "treeSpecs",
                    "type": "string"
                }
            ],
            "stateMutability": "view",
            "type": "function",
            "constant": true
        },
        {
            "inputs": [],
            "name": "treeToken",
            "outputs": [
                {
                    "internalType": "contract ITree",
                    "name": "",
                    "type": "address"
                }
            ],
            "stateMutability": "view",
            "type": "function",
            "constant": true
        },
        {
            "inputs": [],
            "name": "treeUpdateInterval",
            "outputs": [
                {
                    "internalType": "uint256",
                    "name": "",
                    "type": "uint256"
                }
            ],
            "stateMutability": "view",
            "type": "function",
            "constant": true
        },
        {
            "inputs": [
                {
                    "internalType": "uint256",
                    "name": "",
                    "type": "uint256"
                }
            ],
            "name": "treeUpdates",
            "outputs": [
                {
                    "internalType": "string",
                    "name": "updateSpecs",
                    "type": "string"
                },
                {
                    "internalType": "uint64",
                    "name": "updateStatus",
                    "type": "uint64"
                }
            ],
            "stateMutability": "view",
            "type": "function",
            "constant": true
        },
        {
            "inputs": [
                {
                    "internalType": "uint256",
                    "name": "",
                    "type": "uint256"
                }
            ],
            "name": "trees",
            "outputs": [
                {
                    "internalType": "address",
                    "name": "planter",
                    "type": "address"
                },
                {
                    "internalType": "uint256",
                    "name": "species",
                    "type": "uint256"
                },
                {
                    "internalType": "uint32",
                    "name": "countryCode",
                    "type": "uint32"
                },
                {
                    "internalType": "uint32",
                    "name": "saleType",
                    "type": "uint32"
                },
                {
                    "internalType": "uint64",
                    "name": "treeStatus",
                    "type": "uint64"
                },
                {
                    "internalType": "uint64",
                    "name": "plantDate",
                    "type": "uint64"
                },
                {
                    "internalType": "uint64",
                    "name": "birthDate",
                    "type": "uint64"
                },
                {
                    "internalType": "string",
                    "name": "treeSpecs",
                    "type": "string"
                }
            ],
            "stateMutability": "view",
            "type": "function",
            "constant": true
        },
        {
            "inputs": [],
            "name": "trustedForwarder",
            "outputs": [
                {
                    "internalType": "address",
                    "name": "",
                    "type": "address"
                }
            ],
            "stateMutability": "view",
            "type": "function",
            "constant": true
        },
        {
            "inputs": [
                {
                    "internalType": "address",
                    "name": "_accessRestrictionAddress",
                    "type": "address"
                }
            ],
            "name": "initialize",
            "outputs": [],
            "stateMutability": "nonpayable",
            "type": "function"
        },
        {
            "inputs": [
                {
                    "internalType": "uint8",
                    "name": "_selector",
                    "type": "uint8"
                },
                {
                    "internalType": "address",
                    "name": "_address",
                    "type": "address"
                }
            ],
            "name": "setContractAddresses",
            "outputs": [],
            "stateMutability": "nonpayable",
            "type": "function"
        },
        {
            "inputs": [
                {
                    "internalType": "uint256",
                    "name": "_seconds",
                    "type": "uint256"
                }
            ],
            "name": "setUpdateInterval",
            "outputs": [],
            "stateMutability": "nonpayable",
            "type": "function"
        },
        {
            "inputs": [
                {
                    "internalType": "uint256",
                    "name": "_treeId",
                    "type": "uint256"
                },
                {
                    "internalType": "string",
                    "name": "_treeSpecs",
                    "type": "string"
                }
            ],
            "name": "listTree",
            "outputs": [],
            "stateMutability": "nonpayable",
            "type": "function"
        },
        {
            "inputs": [
                {
                    "internalType": "uint256[]",
                    "name": "_treeIds",
                    "type": "uint256[]"
                },
                {
                    "internalType": "string[]",
                    "name": "_treeSpecs",
                    "type": "string[]"
                }
            ],
            "name": "listTreeBatch",
            "outputs": [],
            "stateMutability": "nonpayable",
            "type": "function"
        },
        {
            "inputs": [
                {
                    "internalType": "uint256",
                    "name": "_startTreeId",
                    "type": "uint256"
                },
                {
                    "internalType": "uint256",
                    "name": "_endTreeId",
                    "type": "uint256"
                }
            ],
            "name": "resetTreeStatusBatch",
            "outputs": [],
            "stateMutability": "nonpayable",
            "type": "function"
        },
        {
            "inputs": [
                {
                    "internalType": "uint256",
                    "name": "_treeId",
                    "type": "uint256"
                },
                {
                    "internalType": "address",
                    "name": "_planter",
                    "type": "address"
                }
            ],
            "name": "assignTree",
            "outputs": [],
            "stateMutability": "nonpayable",
            "type": "function"
        },
        {
            "inputs": [
                {
                    "internalType": "uint256[]",
                    "name": "_treeIds",
                    "type": "uint256[]"
                },
                {
                    "internalType": "address[]",
                    "name": "_planters",
                    "type": "address[]"
                }
            ],
            "name": "assignTreeBatch",
            "outputs": [],
            "stateMutability": "nonpayable",
            "type": "function"
        },
        {
            "inputs": [
                {
                    "components": [
                        {
                            "internalType": "address",
                            "name": "planter",
                            "type": "address"
                        },
                        {
                            "components": [
                                {
                                    "internalType": "uint256",
                                    "name": "nonce",
                                    "type": "uint256"
                                },
                                {
                                    "internalType": "uint256",
                                    "name": "treeId",
                                    "type": "uint256"
                                },
                                {
                                    "internalType": "string",
                                    "name": "treeSpecs",
                                    "type": "string"
                                },
                                {
                                    "internalType": "uint64",
                                    "name": "birthDate",
                                    "type": "uint64"
                                },
                                {
                                    "internalType": "uint16",
                                    "name": "countryCode",
                                    "type": "uint16"
                                },
                                {
                                    "internalType": "uint8",
                                    "name": "v",
                                    "type": "uint8"
                                },
                                {
                                    "internalType": "bytes32",
                                    "name": "r",
                                    "type": "bytes32"
                                },
                                {
                                    "internalType": "bytes32",
                                    "name": "s",
                                    "type": "bytes32"
                                }
                            ],
                            "internalType": "struct ITreeFactoryV2.PlantAssignedTreeData[]",
                            "name": "data",
                            "type": "tuple[]"
                        }
                    ],
                    "internalType": "struct ITreeFactoryV2.VerifyAssignedTreeData[]",
                    "name": "_verifyAssignedTreeData",
                    "type": "tuple[]"
                }
            ],
            "name": "verifyAssignedTreeBatch",
            "outputs": [],
            "stateMutability": "nonpayable",
            "type": "function"
        },
        {
            "inputs": [
                {
                    "internalType": "uint256",
                    "name": "_nonce",
                    "type": "uint256"
                },
                {
                    "internalType": "address",
                    "name": "_planter",
                    "type": "address"
                },
                {
                    "internalType": "uint256",
                    "name": "_treeId",
                    "type": "uint256"
                },
                {
                    "internalType": "string",
                    "name": "_treeSpecs",
                    "type": "string"
                },
                {
                    "internalType": "uint64",
                    "name": "_birthDate",
                    "type": "uint64"
                },
                {
                    "internalType": "uint16",
                    "name": "_countryCode",
                    "type": "uint16"
                },
                {
                    "internalType": "uint8",
                    "name": "_v",
                    "type": "uint8"
                },
                {
                    "internalType": "bytes32",
                    "name": "_r",
                    "type": "bytes32"
                },
                {
                    "internalType": "bytes32",
                    "name": "_s",
                    "type": "bytes32"
                }
            ],
            "name": "verifyAssignedTree",
            "outputs": [],
            "stateMutability": "nonpayable",
            "type": "function"
        },
        {
            "inputs": [
                {
                    "components": [
                        {
                            "internalType": "address",
                            "name": "planter",
                            "type": "address"
                        },
                        {
                            "components": [
                                {
                                    "internalType": "uint256",
                                    "name": "nonce",
                                    "type": "uint256"
                                },
                                {
                                    "internalType": "uint256",
                                    "name": "treeId",
                                    "type": "uint256"
                                },
                                {
                                    "internalType": "string",
                                    "name": "treeSpecs",
                                    "type": "string"
                                },
                                {
                                    "internalType": "uint8",
                                    "name": "v",
                                    "type": "uint8"
                                },
                                {
                                    "internalType": "bytes32",
                                    "name": "r",
                                    "type": "bytes32"
                                },
                                {
                                    "internalType": "bytes32",
                                    "name": "s",
                                    "type": "bytes32"
                                }
                            ],
                            "internalType": "struct ITreeFactoryV2.UpdateData[]",
                            "name": "updateData",
                            "type": "tuple[]"
                        }
                    ],
                    "internalType": "struct ITreeFactoryV2.VerifyUpdateData[]",
                    "name": "_verifyUpdateData",
                    "type": "tuple[]"
                }
            ],
            "name": "verifyUpdateBatch",
            "outputs": [],
            "stateMutability": "nonpayable",
            "type": "function"
        },
        {
            "inputs": [
                {
                    "internalType": "uint256",
                    "name": "_nonce",
                    "type": "uint256"
                },
                {
                    "internalType": "address",
                    "name": "_planter",
                    "type": "address"
                },
                {
                    "internalType": "uint256",
                    "name": "_treeId",
                    "type": "uint256"
                },
                {
                    "internalType": "string",
                    "name": "_treeSpecs",
                    "type": "string"
                },
                {
                    "internalType": "uint8",
                    "name": "_v",
                    "type": "uint8"
                },
                {
                    "internalType": "bytes32",
                    "name": "_r",
                    "type": "bytes32"
                },
                {
                    "internalType": "bytes32",
                    "name": "_s",
                    "type": "bytes32"
                }
            ],
            "name": "verifyUpdate",
            "outputs": [],
            "stateMutability": "nonpayable",
            "type": "function"
        },
        {
            "inputs": [
                {
                    "internalType": "uint256",
                    "name": "_treeId",
                    "type": "uint256"
                },
                {
                    "internalType": "uint32",
                    "name": "_saleType",
                    "type": "uint32"
                }
            ],
            "name": "manageSaleType",
            "outputs": [
                {
                    "internalType": "uint32",
                    "name": "",
                    "type": "uint32"
                }
            ],
            "stateMutability": "nonpayable",
            "type": "function"
        },
        {
            "inputs": [
                {
                    "internalType": "uint256",
                    "name": "_treeId",
                    "type": "uint256"
                },
                {
                    "internalType": "address",
                    "name": "_funder",
                    "type": "address"
                }
            ],
            "name": "mintAssignedTree",
            "outputs": [],
            "stateMutability": "nonpayable",
            "type": "function"
        },
        {
            "inputs": [
                {
                    "internalType": "uint256",
                    "name": "_treeId",
                    "type": "uint256"
                }
            ],
            "name": "resetSaleType",
            "outputs": [],
            "stateMutability": "nonpayable",
            "type": "function"
        },
        {
            "inputs": [
                {
                    "internalType": "uint256",
                    "name": "_startTreeId",
                    "type": "uint256"
                },
                {
                    "internalType": "uint256",
                    "name": "_endTreeId",
                    "type": "uint256"
                },
                {
                    "internalType": "uint256",
                    "name": "_saleType",
                    "type": "uint256"
                }
            ],
            "name": "resetSaleTypeBatch",
            "outputs": [],
            "stateMutability": "nonpayable",
            "type": "function"
        },
        {
            "inputs": [
                {
                    "internalType": "uint256",
                    "name": "_startTreeId",
                    "type": "uint256"
                },
                {
                    "internalType": "uint256",
                    "name": "_endTreeId",
                    "type": "uint256"
                },
                {
                    "internalType": "uint32",
                    "name": "_saleType",
                    "type": "uint32"
                }
            ],
            "name": "manageSaleTypeBatch",
            "outputs": [
                {
                    "internalType": "bool",
                    "name": "",
                    "type": "bool"
                }
            ],
            "stateMutability": "nonpayable",
            "type": "function"
        },
        {
            "inputs": [
                {
                    "internalType": "uint256",
                    "name": "_lastRegualarTreeId",
                    "type": "uint256"
                }
            ],
            "name": "updateLastRegualarTreeId",
            "outputs": [],
            "stateMutability": "nonpayable",
            "type": "function"
        },
        {
            "inputs": [
                {
                    "components": [
                        {
                            "internalType": "address",
                            "name": "planter",
                            "type": "address"
                        },
                        {
                            "components": [
                                {
                                    "internalType": "uint256",
                                    "name": "nonce",
                                    "type": "uint256"
                                },
                                {
                                    "internalType": "string",
                                    "name": "treeSpecs",
                                    "type": "string"
                                },
                                {
                                    "internalType": "uint64",
                                    "name": "birthDate",
                                    "type": "uint64"
                                },
                                {
                                    "internalType": "uint16",
                                    "name": "countryCode",
                                    "type": "uint16"
                                },
                                {
                                    "internalType": "uint8",
                                    "name": "v",
                                    "type": "uint8"
                                },
                                {
                                    "internalType": "bytes32",
                                    "name": "r",
                                    "type": "bytes32"
                                },
                                {
                                    "internalType": "bytes32",
                                    "name": "s",
                                    "type": "bytes32"
                                }
                            ],
                            "internalType": "struct ITreeFactoryV2.PlantTreeData[]",
                            "name": "data",
                            "type": "tuple[]"
                        }
                    ],
                    "internalType": "struct ITreeFactoryV2.VerifyTreeData[]",
                    "name": "_verifyTreeData",
                    "type": "tuple[]"
                }
            ],
            "name": "verifyTreeBatch",
            "outputs": [],
            "stateMutability": "nonpayable",
            "type": "function"
        },
        {
            "inputs": [
                {
                    "internalType": "uint256",
                    "name": "_nonce",
                    "type": "uint256"
                },
                {
                    "internalType": "address",
                    "name": "_planter",
                    "type": "address"
                },
                {
                    "internalType": "string",
                    "name": "_treeSpecs",
                    "type": "string"
                },
                {
                    "internalType": "uint64",
                    "name": "_birthDate",
                    "type": "uint64"
                },
                {
                    "internalType": "uint16",
                    "name": "_countryCode",
                    "type": "uint16"
                },
                {
                    "internalType": "uint8",
                    "name": "_v",
                    "type": "uint8"
                },
                {
                    "internalType": "bytes32",
                    "name": "_r",
                    "type": "bytes32"
                },
                {
                    "internalType": "bytes32",
                    "name": "_s",
                    "type": "bytes32"
                }
            ],
            "name": "verifyTree",
            "outputs": [],
            "stateMutability": "nonpayable",
            "type": "function"
        },
        {
            "inputs": [
                {
                    "internalType": "uint256",
                    "name": "_lastFundedTreeId",
                    "type": "uint256"
                },
                {
                    "internalType": "address",
                    "name": "_funder",
                    "type": "address"
                }
            ],
            "name": "mintTree",
            "outputs": [
                {
                    "internalType": "uint256",
                    "name": "",
                    "type": "uint256"
                }
            ],
            "stateMutability": "nonpayable",
            "type": "function"
        },
        {
            "inputs": [
                {
                    "internalType": "uint256",
                    "name": "_treeId",
                    "type": "uint256"
                },
                {
                    "internalType": "address",
                    "name": "_funder",
                    "type": "address"
                }
            ],
            "name": "mintTreeById",
            "outputs": [],
            "stateMutability": "nonpayable",
            "type": "function"
        },
        {
            "inputs": [
                {
                    "internalType": "uint64",
                    "name": "_treeId",
                    "type": "uint64"
                },
                {
                    "internalType": "string",
                    "name": "_treeSpecs",
                    "type": "string"
                }
            ],
            "name": "updateTreeSpecs",
            "outputs": [],
            "stateMutability": "nonpayable",
            "type": "function"
        }
    ],
    "bytecode": "0x608060405234801561001057600080fd5b50615f7080620000216000396000f3fe608060405234801561001057600080fd5b50600436106102925760003560e01c80637124c683116101605780639ebdc1d5116100d8578063c4d66de81161008c578063d6762c4a11610071578063d6762c4a1461063c578063dc8aa5781461065c578063e0eb4eb91461066557600080fd5b8063c4d66de814610601578063c6826fc91461061457600080fd5b8063b2620008116100bd578063b2620008146105c8578063be49fa97146105db578063c32619f1146105ee57600080fd5b80639ebdc1d5146105a2578063ac5064a0146105b557600080fd5b80637cf0d6191161012f57806385847a8e1161011457806385847a8e1461055c57806385c19a7a1461057c5780639c8446f71461058f57600080fd5b80637cf0d619146105235780637da0a8771461053657600080fd5b80637124c683146104c3578063713507bb146104d6578063738b11ab146104e95780637a508022146104fc57600080fd5b80632ef6dabe1161020e5780634bd5e1bf116101c25780635f75e644116101a75780635f75e6441461047a57806365d5a1341461048d5780636a58d22c146104a057600080fd5b80634bd5e1bf1461045457806357eb25991461046757600080fd5b80633891577f116101f35780633891577f146103fa5780633dc96d331461041a57806348cefefd1461042d57600080fd5b80632ef6dabe146103c7578063375b4270146103da57600080fd5b80630f513bd61161026557806321b05e591161024a57806321b05e591461038a578063223475321461039357806329e7178b146103a657600080fd5b80630f513bd61461033257806312cc3ab01461034557600080fd5b8063054bd2dd1461029757806308ec5615146102d1578063090b01cb146102f85780630a3912561461030d575b600080fd5b6102be7fbc52f7899b8a6302f0092dbdb7c7a7b97bbf1b6e2abe156c2d1cdea10797e8b581565b6040519081526020015b60405180910390f35b6102be7ffc25ba1e09e8d7d09a1b44ff75462d5e9a15444a783c4537c0e81f47ce5f138981565b61030b6103063660046153f8565b610672565b005b61032061031b36600461526f565b6109b2565b6040516102c896959493929190615744565b61030b6103403660046152b4565b610ac9565b6006546103659073ffffffffffffffffffffffffffffffffffffffff1681565b60405173ffffffffffffffffffffffffffffffffffffffff90911681526020016102c8565b6102be60045481565b6102be6103a1366004615288565b610ee2565b6103b96103b436600461526f565b6111c3565b6040516102c89291906156ba565b61030b6103d5366004615288565b611271565b6008546103659073ffffffffffffffffffffffffffffffffffffffff1681565b6007546103659073ffffffffffffffffffffffffffffffffffffffff1681565b61030b61042836600461556f565b611380565b6102be7f04c698be4484cc8f3dad42f0424d9352c330a8e82d8ddcce6c775f3c68b8a35881565b61030b61046236600461519f565b6114e9565b61030b6104753660046155a9565b61190c565b61030b6104883660046151e1565b611caf565b61030b61049b366004615351565b611e83565b6104b36104ae366004615517565b6121dc565b60405190151581526020016102c8565b61030b6104d136600461526f565b612418565b61030b6104e43660046154eb565b61254a565b61030b6104f7366004615288565b612681565b61050f61050a36600461526f565b612871565b6040516102c898979695949392919061563e565b61030b61053136600461519f565b61299e565b6000546103659062010000900473ffffffffffffffffffffffffffffffffffffffff1681565b6102be61056a366004615184565b600c6020526000908152604090205481565b61030b61058a36600461526f565b612ef9565b61030b61059d366004615288565b6130a0565b61030b6105b03660046151e1565b6131e9565b61030b6105c336600461526f565b6133b9565b61030b6105d636600461519f565b613473565b61030b6105e936600461547d565b613858565b61030b6105fc3660046154c9565b613964565b61030b61060f366004615184565b613b18565b61062761062236600461554c565b613d3e565b60405163ffffffff90911681526020016102c8565b6005546103659073ffffffffffffffffffffffffffffffffffffffff1681565b6102be60035481565b6002546104b39060ff1681565b600560009054906101000a900473ffffffffffffffffffffffffffffffffffffffff1673ffffffffffffffffffffffffffffffffffffffff16634d868f986040518163ffffffff1660e01b815260040160006040518083038186803b1580156106da57600080fd5b505afa1580156106ee573d6000803e3d6000fd5b50506005546040517f5f7f84c700000000000000000000000000000000000000000000000000000000815233600482015273ffffffffffffffffffffffffffffffffffffffff9091169250635f7f84c7915060240160006040518083038186803b15801561075b57600080fd5b505afa15801561076f573d6000803e3d6000fd5b5050505073ffffffffffffffffffffffffffffffffffffffff86166000908152600c60205260409020548711610806576040517f08c379a000000000000000000000000000000000000000000000000000000000815260206004820152601a60248201527f706c616e746572206e6f6e636520697320696e636f727265637400000000000060448201526064015b60405180910390fd5b61097661090c604080518082018252601081527f547265656a65722050726f746f636f6c0000000000000000000000000000000060209182015281518083018352600181527f31000000000000000000000000000000000000000000000000000000000000009082015281517f8b73c3c69bb8fe3d512ecc4cf759cc79239f7b179b0ffacaa9a75d522b39400f818301527fe1ae4c5ea70ead216fb915131cbfdb36ed856f7318d956915d0dba5b4c4a7551818401527fc89efdaa54c0f20c7adf612882df0950f5a951637e0307cdcb4c672f298b8bc660608201524660808201523060a0808301919091528351808303909101815260c0909101909252815191012090565b8551602080880191909120604080517f04c698be4484cc8f3dad42f0424d9352c330a8e82d8ddcce6c775f3c68b8a3589381019390935282018b905260608201899052608082015260a0016040516020818303038152906040528051906020012088868686613f28565b610981858786614082565b50505073ffffffffffffffffffffffffffffffffffffffff9092166000908152600c60205260409020929092555050565b600b6020526000908152604090208054600182015460028301805467ffffffffffffffff80851695680100000000000000008604821695700100000000000000000000000000000000810483169578010000000000000000000000000000000000000000000000009091049092169373ffffffffffffffffffffffffffffffffffffffff90921692909190610a4690615e20565b80601f0160208091040260200160405190810160405280929190818152602001828054610a7290615e20565b8015610abf5780601f10610a9457610100808354040283529160200191610abf565b820191906000526020600020905b815481529060010190602001808311610aa257829003601f168201915b5050505050905086565b600560009054906101000a900473ffffffffffffffffffffffffffffffffffffffff1673ffffffffffffffffffffffffffffffffffffffff16634d868f986040518163ffffffff1660e01b815260040160006040518083038186803b158015610b3157600080fd5b505afa158015610b45573d6000803e3d6000fd5b50506005546040517f5f7f84c700000000000000000000000000000000000000000000000000000000815233600482015273ffffffffffffffffffffffffffffffffffffffff9091169250635f7f84c7915060240160006040518083038186803b158015610bb257600080fd5b505afa158015610bc6573d6000803e3d6000fd5b50506008546040517fa1f74f0e00000000000000000000000000000000000000000000000000000000815273ffffffffffffffffffffffffffffffffffffffff8b81166004830152909116925063a1f74f0e9150602401602060405180830381600087803b158015610c3757600080fd5b505af1158015610c4b573d6000803e3d6000fd5b505050506040513d601f19601f82011682018060405250810190610c6f919061524d565b610c7857600080fd5b73ffffffffffffffffffffffffffffffffffffffff87166000908152600c60205260409020548811610d06576040517f08c379a000000000000000000000000000000000000000000000000000000000815260206004820152601a60248201527f706c616e746572206e6f6e636520697320696e636f727265637400000000000060448201526064016107fd565b6000610e0b604080518082018252601081527f547265656a65722050726f746f636f6c0000000000000000000000000000000060209182015281518083018352600181527f31000000000000000000000000000000000000000000000000000000000000009082015281517f8b73c3c69bb8fe3d512ecc4cf759cc79239f7b179b0ffacaa9a75d522b39400f818301527fe1ae4c5ea70ead216fb915131cbfdb36ed856f7318d956915d0dba5b4c4a7551818401527fc89efdaa54c0f20c7adf612882df0950f5a951637e0307cdcb4c672f298b8bc660608201524660808201523060a0808301919091528351808303909101815260c0909101909252815191012090565b87516020808a0191909120604080517ffc25ba1e09e8d7d09a1b44ff75462d5e9a15444a783c4537c0e81f47ce5f13899381019390935282018c9052606082015267ffffffffffffffff8816608082015261ffff871660a0820152909150610e9190829060c001604051602081830303815290604052805190602001208a878787613f28565b610eac6003546001610ea39190615952565b86888a8c6144c2565b60035550505073ffffffffffffffffffffffffffffffffffffffff9094166000908152600c602052604090209490945550505050565b6005546040517febe6a6f300000000000000000000000000000000000000000000000000000000815233600482015260009173ffffffffffffffffffffffffffffffffffffffff169063ebe6a6f39060240160006040518083038186803b158015610f4c57600080fd5b505afa158015610f60573d6000803e3d6000fd5b505050506000836001610f739190615952565b6000818152600960205260408120600201549192509068010000000000000000900467ffffffffffffffff16158015610fc95750600082815260096020526040902060020154640100000000900463ffffffff16155b80611027575060008281526009602052604090206002015460036801000000000000000090910467ffffffffffffffff16118015611027575060008281526009602052604090206002015463ffffffff640100000000909104166004145b90505b806110f45761103a826001615952565b60008181526009602052604090206002015490925068010000000000000000900467ffffffffffffffff1615801561108f5750600082815260096020526040902060020154640100000000900463ffffffff16155b806110ed575060008281526009602052604090206002015460036801000000000000000090910467ffffffffffffffff161180156110ed575060008281526009602052604090206002015463ffffffff640100000000909104166004145b905061102a565b6000828152600960205260409081902060020180547fffffffffffffffffffffffffffffffffffffffffffffffff00000000ffffffff16905560065490517f40c10f1900000000000000000000000000000000000000000000000000000000815273ffffffffffffffffffffffffffffffffffffffff868116600483015260248201859052909116906340c10f1990604401600060405180830381600087803b1580156111a057600080fd5b505af11580156111b4573d6000803e3d6000fd5b50939450505050505b92915050565b600a602052600090815260409020805481906111de90615e20565b80601f016020809104026020016040519081016040528092919081815260200182805461120a90615e20565b80156112575780601f1061122c57610100808354040283529160200191611257565b820191906000526020600020905b81548152906001019060200180831161123a57829003601f168201915b5050506001909301549192505067ffffffffffffffff1682565b600560009054906101000a900473ffffffffffffffffffffffffffffffffffffffff1673ffffffffffffffffffffffffffffffffffffffff16634d868f986040518163ffffffff1660e01b815260040160006040518083038186803b1580156112d957600080fd5b505afa1580156112ed573d6000803e3d6000fd5b50506005546040517fc4d2a31b00000000000000000000000000000000000000000000000000000000815233600482015273ffffffffffffffffffffffffffffffffffffffff909116925063c4d2a31b915060240160006040518083038186803b15801561135a57600080fd5b505afa15801561136e573d6000803e3d6000fd5b5050505061137c8282614752565b5050565b600560009054906101000a900473ffffffffffffffffffffffffffffffffffffffff1673ffffffffffffffffffffffffffffffffffffffff16634d868f986040518163ffffffff1660e01b815260040160006040518083038186803b1580156113e857600080fd5b505afa1580156113fc573d6000803e3d6000fd5b50506005546040517fd449b6ac00000000000000000000000000000000000000000000000000000000815233600482015273ffffffffffffffffffffffffffffffffffffffff909116925063d449b6ac915060240160006040518083038186803b15801561146957600080fd5b505afa15801561147d573d6000803e3d6000fd5b50505067ffffffffffffffff841660009081526009602052604090206114a891506003018383614ec9565b507fe057d65b6e89ca5556afee78d44476007a26185cff8218bc9e2d10f5bb0d6f6b8383836040516114dc939291906156e6565b60405180910390a1505050565b600560009054906101000a900473ffffffffffffffffffffffffffffffffffffffff1673ffffffffffffffffffffffffffffffffffffffff16634d868f986040518163ffffffff1660e01b815260040160006040518083038186803b15801561155157600080fd5b505afa158015611565573d6000803e3d6000fd5b50506005546040517f5f7f84c700000000000000000000000000000000000000000000000000000000815233600482015273ffffffffffffffffffffffffffffffffffffffff9091169250635f7f84c7915060240160006040518083038186803b1580156115d257600080fd5b505afa1580156115e6573d6000803e3d6000fd5b5050505060006116ef604080518082018252601081527f547265656a65722050726f746f636f6c0000000000000000000000000000000060209182015281518083018352600181527f31000000000000000000000000000000000000000000000000000000000000009082015281517f8b73c3c69bb8fe3d512ecc4cf759cc79239f7b179b0ffacaa9a75d522b39400f818301527fe1ae4c5ea70ead216fb915131cbfdb36ed856f7318d956915d0dba5b4c4a7551818401527fc89efdaa54c0f20c7adf612882df0950f5a951637e0307cdcb4c672f298b8bc660608201524660808201523060a0808301919091528351808303909101815260c0909101909252815191012090565b905060005b8281101561190657600084848381811061171057611710615edc565b9050602002810190611722919061580e565b61172b906159ec565b805173ffffffffffffffffffffffffffffffffffffffff166000908152600c60205260408120549192505b8260200151518110156118d65760008360200151828151811061177b5761177b615edc565b6020026020010151905061183f867fbc52f7899b8a6302f0092dbdb7c7a7b97bbf1b6e2abe156c2d1cdea10797e8b583600001518460200151856040015180519060200120866060015187608001516040516020016118109695949392919095865260208601949094526040850192909252606084015267ffffffffffffffff16608083015261ffff1660a082015260c00190565b6040516020818303038152906040528051906020012086600001518460a001518560c001518660e00151613f28565b805183106118a9576040517f08c379a000000000000000000000000000000000000000000000000000000000815260206004820152601a60248201527f706c616e746572206e6f6e636520697320696e636f727265637400000000000060448201526064016107fd565b8051602082015185516040840151606085015160808601519497506118cd9461495a565b50600101611756565b50905173ffffffffffffffffffffffffffffffffffffffff166000908152600c60205260409020556001016116f4565b50505050565b6005546040517f8413ec1400000000000000000000000000000000000000000000000000000000815233600482015273ffffffffffffffffffffffffffffffffffffffff90911690638413ec149060240160006040518083038186803b15801561197557600080fd5b505afa158015611989573d6000803e3d6000fd5b50839250505073ffffffffffffffffffffffffffffffffffffffff8116611a0c576040517f08c379a000000000000000000000000000000000000000000000000000000000815260206004820152600f60248201527f496e76616c69642061646472657373000000000000000000000000000000000060448201526064016107fd565b60ff8316611aea5760008290508073ffffffffffffffffffffffffffffffffffffffff1663349904da6040518163ffffffff1660e01b815260040160206040518083038186803b158015611a5f57600080fd5b505afa158015611a73573d6000803e3d6000fd5b505050506040513d601f19601f82011682018060405250810190611a97919061524d565b611aa057600080fd5b600780547fffffffffffffffffffffffff00000000000000000000000000000000000000001673ffffffffffffffffffffffffffffffffffffffff92909216919091179055505050565b8260ff1660011415611bcc5760008290508073ffffffffffffffffffffffffffffffffffffffff166303dc8deb6040518163ffffffff1660e01b815260040160206040518083038186803b158015611b4157600080fd5b505afa158015611b55573d6000803e3d6000fd5b505050506040513d601f19601f82011682018060405250810190611b79919061524d565b611b8257600080fd5b600880547fffffffffffffffffffffffff00000000000000000000000000000000000000001673ffffffffffffffffffffffffffffffffffffffff92909216919091179055505050565b8260ff1660021415611caa5760008290508073ffffffffffffffffffffffffffffffffffffffff166337b9fd776040518163ffffffff1660e01b815260040160206040518083038186803b158015611c2357600080fd5b505afa158015611c37573d6000803e3d6000fd5b505050506040513d601f19601f82011682018060405250810190611c5b919061524d565b611c6457600080fd5b600680547fffffffffffffffffffffffff00000000000000000000000000000000000000001673ffffffffffffffffffffffffffffffffffffffff929092169190911790555b505050565b600560009054906101000a900473ffffffffffffffffffffffffffffffffffffffff1673ffffffffffffffffffffffffffffffffffffffff16634d868f986040518163ffffffff1660e01b815260040160006040518083038186803b158015611d1757600080fd5b505afa158015611d2b573d6000803e3d6000fd5b50506005546040517fc4d2a31b00000000000000000000000000000000000000000000000000000000815233600482015273ffffffffffffffffffffffffffffffffffffffff909116925063c4d2a31b915060240160006040518083038186803b158015611d9857600080fd5b505afa158015611dac573d6000803e3d6000fd5b5050508382149050611e1a576040517f08c379a000000000000000000000000000000000000000000000000000000000815260206004820152600e60248201527f696e76616c696420696e7075747300000000000000000000000000000000000060448201526064016107fd565b60005b83811015611e7c57611e6a858583818110611e3a57611e3a615edc565b90506020020135848484818110611e5357611e53615edc565b9050602002810190611e6591906157a9565b614c88565b80611e7481615e74565b915050611e1d565b5050505050565b600560009054906101000a900473ffffffffffffffffffffffffffffffffffffffff1673ffffffffffffffffffffffffffffffffffffffff16634d868f986040518163ffffffff1660e01b815260040160006040518083038186803b158015611eeb57600080fd5b505afa158015611eff573d6000803e3d6000fd5b50506005546040517f5f7f84c700000000000000000000000000000000000000000000000000000000815233600482015273ffffffffffffffffffffffffffffffffffffffff9091169250635f7f84c7915060240160006040518083038186803b158015611f6c57600080fd5b505afa158015611f80573d6000803e3d6000fd5b5050505073ffffffffffffffffffffffffffffffffffffffff88166000908152600c60205260409020548911612012576040517f08c379a000000000000000000000000000000000000000000000000000000000815260206004820152601a60248201527f706c616e746572206e6f6e636520697320696e636f727265637400000000000060448201526064016107fd565b61219c612118604080518082018252601081527f547265656a65722050726f746f636f6c0000000000000000000000000000000060209182015281518083018352600181527f31000000000000000000000000000000000000000000000000000000000000009082015281517f8b73c3c69bb8fe3d512ecc4cf759cc79239f7b179b0ffacaa9a75d522b39400f818301527fe1ae4c5ea70ead216fb915131cbfdb36ed856f7318d956915d0dba5b4c4a7551818401527fc89efdaa54c0f20c7adf612882df0950f5a951637e0307cdcb4c672f298b8bc660608201524660808201523060a0808301919091528351808303909101815260c0909101909252815191012090565b87516020808a0191909120604080517fbc52f7899b8a6302f0092dbdb7c7a7b97bbf1b6e2abe156c2d1cdea10797e8b59381019390935282018d9052606082018b9052608082015267ffffffffffffffff881660a082015261ffff871660c082015260e001604051602081830303815290604052805190602001208a868686613f28565b6121a9878988888861495a565b50505073ffffffffffffffffffffffffffffffffffffffff9094166000908152600c602052604090209490945550505050565b6005546040517febe6a6f300000000000000000000000000000000000000000000000000000000815233600482015260009173ffffffffffffffffffffffffffffffffffffffff169063ebe6a6f39060240160006040518083038186803b15801561224657600080fd5b505afa15801561225a573d6000803e3d6000fd5b5086925050505b8381101561235457600081815260096020526040902060020154640100000000900463ffffffff1615158061233357506006546040517f4f558e790000000000000000000000000000000000000000000000000000000081526004810183905273ffffffffffffffffffffffffffffffffffffffff90911690634f558e799060240160206040518083038186803b1580156122fb57600080fd5b505afa15801561230f573d6000803e3d6000fd5b505050506040513d601f19601f82011682018060405250810190612333919061524d565b15612342576000915050612411565b8061234c81615e74565b915050612261565b50835b8381101561240b5760008181526009602052604090206002810180547fffffffffffffffffffffffffffffffffffffffffffffffff00000000ffffffff1664010000000063ffffffff871602179081905568010000000000000000900467ffffffffffffffff166123f8576002810180547fffffffffffffffffffffffffffffffff0000000000000000ffffffffffffffff16680200000000000000001790555b508061240381615e74565b915050612357565b50600190505b9392505050565b600560009054906101000a900473ffffffffffffffffffffffffffffffffffffffff1673ffffffffffffffffffffffffffffffffffffffff16634d868f986040518163ffffffff1660e01b815260040160006040518083038186803b15801561248057600080fd5b505afa158015612494573d6000803e3d6000fd5b50506005546040517fc4d2a31b00000000000000000000000000000000000000000000000000000000815233600482015273ffffffffffffffffffffffffffffffffffffffff909116925063c4d2a31b915060240160006040518083038186803b15801561250157600080fd5b505afa158015612515573d6000803e3d6000fd5b5050506004829055506040517f724a8c86a27543b6d373c576963d00ead954c78a72015a1929b5757edeaa06c890600090a150565b6005546040517febe6a6f300000000000000000000000000000000000000000000000000000000815233600482015273ffffffffffffffffffffffffffffffffffffffff9091169063ebe6a6f39060240160006040518083038186803b1580156125b357600080fd5b505afa1580156125c7573d6000803e3d6000fd5b5085925050505b828110156119065760008181526009602052604090206002810154640100000000900463ffffffff1683141561266e57600281810180547fffffffffffffffffffffffffffffffffffffffffffffffff00000000ffffffff169081905568010000000000000000900467ffffffffffffffff16141561266e5780547fffffffffffffffffffffffff00000000000000000000000000000000000000001681555b508061267981615e74565b9150506125ce565b6005546040517febe6a6f300000000000000000000000000000000000000000000000000000000815233600482015273ffffffffffffffffffffffffffffffffffffffff9091169063ebe6a6f39060240160006040518083038186803b1580156126ea57600080fd5b505afa1580156126fe573d6000803e3d6000fd5b5050506000838152600960205260409020600281015490915060036801000000000000000090910467ffffffffffffffff161180156127505750600281015463ffffffff640100000000909104166004145b6127b6576040517f08c379a000000000000000000000000000000000000000000000000000000000815260206004820152601060248201527f54726565206e6f7420706c616e7465640000000000000000000000000000000060448201526064016107fd565b6002810180547fffffffffffffffffffffffffffffffffffffffffffffffff00000000ffffffff1690556006546040517f40c10f1900000000000000000000000000000000000000000000000000000000815273ffffffffffffffffffffffffffffffffffffffff848116600483015260248201869052909116906340c10f1990604401600060405180830381600087803b15801561285457600080fd5b505af1158015612868573d6000803e3d6000fd5b50505050505050565b600960205260009081526040902080546001820154600283015460038401805473ffffffffffffffffffffffffffffffffffffffff90941694929363ffffffff8084169464010000000085049091169367ffffffffffffffff68010000000000000000820481169470010000000000000000000000000000000083048216947801000000000000000000000000000000000000000000000000909304909116929161291b90615e20565b80601f016020809104026020016040519081016040528092919081815260200182805461294790615e20565b80156129945780601f1061296957610100808354040283529160200191612994565b820191906000526020600020905b81548152906001019060200180831161297757829003601f168201915b5050505050905088565b600560009054906101000a900473ffffffffffffffffffffffffffffffffffffffff1673ffffffffffffffffffffffffffffffffffffffff16634d868f986040518163ffffffff1660e01b815260040160006040518083038186803b158015612a0657600080fd5b505afa158015612a1a573d6000803e3d6000fd5b50506005546040517f5f7f84c700000000000000000000000000000000000000000000000000000000815233600482015273ffffffffffffffffffffffffffffffffffffffff9091169250635f7f84c7915060240160006040518083038186803b158015612a8757600080fd5b505afa158015612a9b573d6000803e3d6000fd5b5050600354915060009050612ba9604080518082018252601081527f547265656a65722050726f746f636f6c0000000000000000000000000000000060209182015281518083018352600181527f31000000000000000000000000000000000000000000000000000000000000009082015281517f8b73c3c69bb8fe3d512ecc4cf759cc79239f7b179b0ffacaa9a75d522b39400f818301527fe1ae4c5ea70ead216fb915131cbfdb36ed856f7318d956915d0dba5b4c4a7551818401527fc89efdaa54c0f20c7adf612882df0950f5a951637e0307cdcb4c672f298b8bc660608201524660808201523060a0808301919091528351808303909101815260c0909101909252815191012090565b905060005b83811015612ef0576000858583818110612bca57612bca615edc565b9050602002810190612bdc919061580e565b612be590615b75565b600854815160208301515192935073ffffffffffffffffffffffffffffffffffffffff90911691638ff242bb9190612c1c90614d95565b6040517fffffffff0000000000000000000000000000000000000000000000000000000060e085901b16815273ffffffffffffffffffffffffffffffffffffffff909216600483015263ffffffff166024820152604401602060405180830381600087803b158015612c8d57600080fd5b505af1158015612ca1573d6000803e3d6000fd5b505050506040513d601f19601f82011682018060405250810190612cc5919061524d565b612d2b576040517f08c379a000000000000000000000000000000000000000000000000000000000815260206004820152601160248201527f5065726d697373696f6e2064656e69656400000000000000000000000000000060448201526064016107fd565b805173ffffffffffffffffffffffffffffffffffffffff166000908152600c6020526040812054905b826020015151811015612ec057600083602001518281518110612d7957612d79615edc565b6020026020010151905080600001518310612df0576040517f08c379a000000000000000000000000000000000000000000000000000000000815260206004820152601a60248201527f706c616e746572206e6f6e636520697320696e636f727265637400000000000060448201526064016107fd565b805160208083015180519082012060408085015160608087015183517ffc25ba1e09e8d7d09a1b44ff75462d5e9a15444a783c4537c0e81f47ce5f13899681019690965292850186905284019290925267ffffffffffffffff909116608083015261ffff1660a0820152909350612e9590879060c00160405160208183030381529060405280519060200120866000015184608001518560a001518660c00151613f28565b612eb58760010182606001518360400151846020015188600001516144c2565b965050600101612d54565b50905173ffffffffffffffffffffffffffffffffffffffff166000908152600c6020526040902055600101612bae565b50506003555050565b600560009054906101000a900473ffffffffffffffffffffffffffffffffffffffff1673ffffffffffffffffffffffffffffffffffffffff16634d868f986040518163ffffffff1660e01b815260040160006040518083038186803b158015612f6157600080fd5b505afa158015612f75573d6000803e3d6000fd5b50506005546040517fc4d2a31b00000000000000000000000000000000000000000000000000000000815233600482015273ffffffffffffffffffffffffffffffffffffffff909116925063c4d2a31b915060240160006040518083038186803b158015612fe257600080fd5b505afa158015612ff6573d6000803e3d6000fd5b505050506003548111613065576040517f08c379a000000000000000000000000000000000000000000000000000000000815260206004820152601a60248201527f496e76616c6964206c61737452656775616c617254726565496400000000000060448201526064016107fd565b60038190556040518181527fa9773843a83608e5980349ca85f4c0f3ec08f968c1e7544fde96381c7dd0cdf09060200160405180910390a150565b6005546040517febe6a6f300000000000000000000000000000000000000000000000000000000815233600482015273ffffffffffffffffffffffffffffffffffffffff9091169063ebe6a6f39060240160006040518083038186803b15801561310957600080fd5b505afa15801561311d573d6000803e3d6000fd5b5050506000838152600960205260409081902060020180547fffffffffffffffffffffffffffffffffffffffffffffffff00000000ffffffff16905560065490517f40c10f1900000000000000000000000000000000000000000000000000000000815273ffffffffffffffffffffffffffffffffffffffff84811660048301526024820186905290911691506340c10f1990604401600060405180830381600087803b1580156131cd57600080fd5b505af11580156131e1573d6000803e3d6000fd5b505050505050565b600560009054906101000a900473ffffffffffffffffffffffffffffffffffffffff1673ffffffffffffffffffffffffffffffffffffffff16634d868f986040518163ffffffff1660e01b815260040160006040518083038186803b15801561325157600080fd5b505afa158015613265573d6000803e3d6000fd5b50506005546040517fc4d2a31b00000000000000000000000000000000000000000000000000000000815233600482015273ffffffffffffffffffffffffffffffffffffffff909116925063c4d2a31b915060240160006040518083038186803b1580156132d257600080fd5b505afa1580156132e6573d6000803e3d6000fd5b5050508382149050613354576040517f08c379a000000000000000000000000000000000000000000000000000000000815260206004820152600e60248201527f696e76616c696420696e7075747300000000000000000000000000000000000060448201526064016107fd565b60005b83811015611e7c576133a785858381811061337457613374615edc565b9050602002013584848481811061338d5761338d615edc565b90506020020160208101906133a29190615184565b614752565b806133b181615e74565b915050613357565b6005546040517febe6a6f300000000000000000000000000000000000000000000000000000000815233600482015273ffffffffffffffffffffffffffffffffffffffff9091169063ebe6a6f39060240160006040518083038186803b15801561342257600080fd5b505afa158015613436573d6000803e3d6000fd5b50505060009182525060096020526040902060020180547fffffffffffffffffffffffffffffffffffffffffffffffff00000000ffffffff169055565b600560009054906101000a900473ffffffffffffffffffffffffffffffffffffffff1673ffffffffffffffffffffffffffffffffffffffff16634d868f986040518163ffffffff1660e01b815260040160006040518083038186803b1580156134db57600080fd5b505afa1580156134ef573d6000803e3d6000fd5b50506005546040517f5f7f84c700000000000000000000000000000000000000000000000000000000815233600482015273ffffffffffffffffffffffffffffffffffffffff9091169250635f7f84c7915060240160006040518083038186803b15801561355c57600080fd5b505afa158015613570573d6000803e3d6000fd5b505050506000613679604080518082018252601081527f547265656a65722050726f746f636f6c0000000000000000000000000000000060209182015281518083018352600181527f31000000000000000000000000000000000000000000000000000000000000009082015281517f8b73c3c69bb8fe3d512ecc4cf759cc79239f7b179b0ffacaa9a75d522b39400f818301527fe1ae4c5ea70ead216fb915131cbfdb36ed856f7318d956915d0dba5b4c4a7551818401527fc89efdaa54c0f20c7adf612882df0950f5a951637e0307cdcb4c672f298b8bc660608201524660808201523060a0808301919091528351808303909101815260c0909101909252815191012090565b905060005b8281101561190657600084848381811061369a5761369a615edc565b90506020028101906136ac919061580e565b6136b590615cd6565b805173ffffffffffffffffffffffffffffffffffffffff166000908152600c60205260408120549192505b8260200151518110156138285760008360200151828151811061370557613705615edc565b602002602001015190508060000151831061377c576040517f08c379a000000000000000000000000000000000000000000000000000000000815260206004820152601a60248201527f706c616e746572206e6f6e636520697320696e636f727265637400000000000060448201526064016107fd565b805160208083015160408085015180519084012081517f04c698be4484cc8f3dad42f0424d9352c330a8e82d8ddcce6c775f3c68b8a358948101949094529083018490526060830191909152608082015290935061380890879060a001604051602081830303815290604052805190602001208660000151846060015185608001518660a00151613f28565b61381f816020015185600001518360400151614082565b506001016136e0565b50905173ffffffffffffffffffffffffffffffffffffffff166000908152600c602052604090205560010161367e565b600560009054906101000a900473ffffffffffffffffffffffffffffffffffffffff1673ffffffffffffffffffffffffffffffffffffffff16634d868f986040518163ffffffff1660e01b815260040160006040518083038186803b1580156138c057600080fd5b505afa1580156138d4573d6000803e3d6000fd5b50506005546040517fc4d2a31b00000000000000000000000000000000000000000000000000000000815233600482015273ffffffffffffffffffffffffffffffffffffffff909116925063c4d2a31b915060240160006040518083038186803b15801561394157600080fd5b505afa158015613955573d6000803e3d6000fd5b50505050611caa838383614c88565b600560009054906101000a900473ffffffffffffffffffffffffffffffffffffffff1673ffffffffffffffffffffffffffffffffffffffff16634d868f986040518163ffffffff1660e01b815260040160006040518083038186803b1580156139cc57600080fd5b505afa1580156139e0573d6000803e3d6000fd5b50506005546040517fc4d2a31b00000000000000000000000000000000000000000000000000000000815233600482015273ffffffffffffffffffffffffffffffffffffffff909116925063c4d2a31b915060240160006040518083038186803b158015613a4d57600080fd5b505afa158015613a61573d6000803e3d6000fd5b5084925050505b81811015613aea57600081815260096020526040902060029081015468010000000000000000900467ffffffffffffffff161415613ad857600081815260096020526040902060020180547fffffffffffffffffffffffffffffffff0000000000000000ffffffffffffffff1690555b80613ae281615e74565b915050613a68565b506040517fbde8f07343ad7e0051caea2b06edc3a63dadb6d14f0d769b7d9e0295684bfed490600090a15050565b600054610100900460ff16613b335760005460ff1615613b37565b303b155b613bc3576040517f08c379a000000000000000000000000000000000000000000000000000000000815260206004820152602e60248201527f496e697469616c697a61626c653a20636f6e747261637420697320616c72656160448201527f647920696e697469616c697a656400000000000000000000000000000000000060648201526084016107fd565b600054610100900460ff16158015613c0257600080547fffffffffffffffffffffffffffffffffffffffffffffffffffffffffffff0000166101011790555b60008290508073ffffffffffffffffffffffffffffffffffffffff1663ba84fd696040518163ffffffff1660e01b815260040160206040518083038186803b158015613c4d57600080fd5b505afa158015613c61573d6000803e3d6000fd5b505050506040513d601f19601f82011682018060405250810190613c85919061524d565b613c8e57600080fd5b600280547fffffffffffffffffffffffffffffffffffffffffffffffffffffffffffffff001660011790556005805473ffffffffffffffffffffffffffffffffffffffff9092167fffffffffffffffffffffffff000000000000000000000000000000000000000090921691909117905561271060035562093a80600455801561137c57600080547fffffffffffffffffffffffffffffffffffffffffffffffffffffffffffff00ff1690555050565b6005546040517febe6a6f300000000000000000000000000000000000000000000000000000000815233600482015260009173ffffffffffffffffffffffffffffffffffffffff169063ebe6a6f39060240160006040518083038186803b158015613da857600080fd5b505afa158015613dbc573d6000803e3d6000fd5b50506006546040517f4f558e790000000000000000000000000000000000000000000000000000000081526004810187905273ffffffffffffffffffffffffffffffffffffffff9091169250634f558e79915060240160206040518083038186803b158015613e2a57600080fd5b505afa158015613e3e573d6000803e3d6000fd5b505050506040513d601f19601f82011682018060405250810190613e62919061524d565b15613e6f575060016111bd565b60008381526009602052604090206002810154640100000000900463ffffffff1680613f20576002820180547fffffffffffffffffffffffffffffffffffffffffffffffff00000000ffffffff1664010000000063ffffffff871602179081905568010000000000000000900467ffffffffffffffff16613f20576002820180547fffffffffffffffffffffffffffffffff0000000000000000ffffffffffffffff16680200000000000000001790555b949350505050565b604080517f190100000000000000000000000000000000000000000000000000000000000060208083019190915260228201899052604280830189905283518084039091018152606290920190925280519101206000906040805160008082526020820180845284905260ff88169282019290925260608101869052608081018590529192509060019060a0016020604051602081039080840390855afa158015613fd7573d6000803e3d6000fd5b5050506020604051035190508573ffffffffffffffffffffffffffffffffffffffff168173ffffffffffffffffffffffffffffffffffffffff1614614078576040517f08c379a000000000000000000000000000000000000000000000000000000000815260206004820152601e60248201527f54726565466163746f72793a20696e76616c6964207369676e6174757265000060448201526064016107fd565b5050505050505050565b6000838152600960205260409020805473ffffffffffffffffffffffffffffffffffffffff848116911614614113576040517f08c379a000000000000000000000000000000000000000000000000000000000815260206004820152600e60248201527f4e6f74206f776e6564207472656500000000000000000000000000000000000060448201526064016107fd565b600281015460036801000000000000000090910467ffffffffffffffff1611614198576040517f08c379a000000000000000000000000000000000000000000000000000000000815260206004820152601060248201527f54726565206e6f7420706c616e7465640000000000000000000000000000000060448201526064016107fd565b60045460028201546141c29068010000000000000000900467ffffffffffffffff16610e106159a5565b67ffffffffffffffff166141d69190615952565b60028201546142039190700100000000000000000000000000000000900467ffffffffffffffff16615952565b42101561426c576040517f08c379a000000000000000000000000000000000000000000000000000000000815260206004820152600c60248201527f4561726c7920757064617465000000000000000000000000000000000000000060448201526064016107fd565b60028101546000906142b390610e10906142a490700100000000000000000000000000000000900467ffffffffffffffff16426159d5565b6142ae919061596a565b614d95565b600283015490915068010000000000000000900467ffffffffffffffff1663ffffffff8216111561431c576002820180547fffffffffffffffffffffffffffffffff0000000000000000ffffffffffffffff1663ffffffff831668010000000000000000021790555b82516143319060038401906020860190614f67565b506006546040517f4f558e790000000000000000000000000000000000000000000000000000000081526004810187905273ffffffffffffffffffffffffffffffffffffffff90911690634f558e799060240160206040518083038186803b15801561439c57600080fd5b505afa1580156143b0573d6000803e3d6000fd5b505050506040513d601f19601f820116820180604052508101906143d4919061524d565b1561448857600754825460028401546040517fc0ba4aff0000000000000000000000000000000000000000000000000000000081526004810189905273ffffffffffffffffffffffffffffffffffffffff92831660248201526801000000000000000090910467ffffffffffffffff16604482015291169063c0ba4aff90606401600060405180830381600087803b15801561446f57600080fd5b505af1158015614483573d6000803e3d6000fd5b505050505b6040518581527f50dc150da4a25245987f08b8287e8418fa686f9fa829464e548245dff47345e19060200160405180910390a15050505050565b60005b60008681526009602052604090206002015468010000000000000000900467ffffffffffffffff161580156145175750600086815260096020526040902060020154640100000000900463ffffffff16155b61452d57614526600187615952565b95506144c5565b600086815260096020526040902061454442614e2f565b60028201805461ffff89166fffffffffffffffffffffffff0000000090911670010000000000000000000000000000000067ffffffffffffffff9485160277ffffffffffffffffffffffffffffffffffffffff0000000016171778010000000000000000000000000000000000000000000000009288169290920291909117905583516145da9060038301906020870190614f67565b5080547fffffffffffffffffffffffff00000000000000000000000000000000000000001673ffffffffffffffffffffffffffffffffffffffff8481169190911782556002820180547fffffffffffffffffffffffffffffffff0000000000000000ffffffffffffffff16680400000000000000001790556006546040517f4f558e79000000000000000000000000000000000000000000000000000000008152600481018a9052911690634f558e799060240160206040518083038186803b1580156146a657600080fd5b505afa1580156146ba573d6000803e3d6000fd5b505050506040513d601f19601f820116820180604052508101906146de919061524d565b614714576002810180547fffffffffffffffffffffffffffffffffffffffffffffffff00000000ffffffff166404000000001790555b6040518781527f75d4be3d71dae36b4a76a4dfaae743da5901ca7215c11a1dd0fb693730b9ea179060200160405180910390a1509495945050505050565b600082815260096020526040902060028082015468010000000000000000900467ffffffffffffffff16146147e3576040517f08c379a000000000000000000000000000000000000000000000000000000000815260206004820152600c60248201527f496e76616c69642074726565000000000000000000000000000000000000000060448201526064016107fd565b6008546040517f3d9b75df00000000000000000000000000000000000000000000000000000000815273ffffffffffffffffffffffffffffffffffffffff848116600483015290911690633d9b75df9060240160206040518083038186803b15801561484e57600080fd5b505afa158015614862573d6000803e3d6000fd5b505050506040513d601f19601f82011682018060405250810190614886919061524d565b6148ec576040517f08c379a000000000000000000000000000000000000000000000000000000000815260206004820152601360248201527f4e6f7420616c6c6f77656420706c616e7465720000000000000000000000000060448201526064016107fd565b80547fffffffffffffffffffffffff00000000000000000000000000000000000000001673ffffffffffffffffffffffffffffffffffffffff83161781556040518381527f5569e20f761862546a9a892a1fd4508e29978c6a2673afb7ec47675e8cf6b465906020016114dc565b600085815260096020526040902060028082015468010000000000000000900467ffffffffffffffff16146149eb576040517f08c379a000000000000000000000000000000000000000000000000000000000815260206004820152601360248201527f496e76616c69642074726565207374617475730000000000000000000000000060448201526064016107fd565b60085481546040517f0649d93000000000000000000000000000000000000000000000000000000000815273ffffffffffffffffffffffffffffffffffffffff88811660048301529182166024820152911690630649d93090604401602060405180830381600087803b158015614a6157600080fd5b505af1158015614a75573d6000803e3d6000fd5b505050506040513d601f19601f82011682018060405250810190614a99919061524d565b614aff576040517f08c379a000000000000000000000000000000000000000000000000000000000815260206004820152601160248201527f5065726d697373696f6e2064656e69656400000000000000000000000000000060448201526064016107fd565b805473ffffffffffffffffffffffffffffffffffffffff868116911614614b5f5780547fffffffffffffffffffffffff00000000000000000000000000000000000000001673ffffffffffffffffffffffffffffffffffffffff86161781555b60028101805467ffffffffffffffff851678010000000000000000000000000000000000000000000000000277ffffffffffffffffffffffffffffffffffffffff0000000090911661ffff851617179055614bb942614e2f565b6002820180547fffffffffffffffff00000000000000000000000000000000ffffffffffffffff1670010000000000000000000000000000000067ffffffffffffffff93909316929092027fffffffffffffffffffffffffffffffff0000000000000000ffffffffffffffff1691909117680400000000000000001790558351614c4c9060038301906020870190614f67565b506040518681527f84877ccbface2d9faaae31e1d836044ce2bec38ea03584b8b86d18f050d5dda99060200160405180910390a1505050505050565b6000838152600960205260409020600281015468010000000000000000900467ffffffffffffffff1615614d18576040517f08c379a000000000000000000000000000000000000000000000000000000000815260206004820152600e60248201527f4475706c6963617465207472656500000000000000000000000000000000000060448201526064016107fd565b6002810180547fffffffffffffffffffffffffffffffff0000000000000000ffffffffffffffff1668020000000000000000179055614d5b600382018484614ec9565b506040518481527fa4af200dc5a6779ca0b468c7da84df9212cacc9efa51c54cf145b4f8308796b49060200160405180910390a150505050565b600063ffffffff821115614e2b576040517f08c379a000000000000000000000000000000000000000000000000000000000815260206004820152602660248201527f53616665436173743a2076616c756520646f65736e27742066697420696e203360448201527f322062697473000000000000000000000000000000000000000000000000000060648201526084016107fd565b5090565b600067ffffffffffffffff821115614e2b576040517f08c379a000000000000000000000000000000000000000000000000000000000815260206004820152602660248201527f53616665436173743a2076616c756520646f65736e27742066697420696e203660448201527f342062697473000000000000000000000000000000000000000000000000000060648201526084016107fd565b828054614ed590615e20565b90600052602060002090601f016020900481019282614ef75760008555614f5b565b82601f10614f2e578280017fffffffffffffffffffffffffffffffffffffffffffffffffffffffffffffff00823516178555614f5b565b82800160010185558215614f5b579182015b82811115614f5b578235825591602001919060010190614f40565b50614e2b929150614fdb565b828054614f7390615e20565b90600052602060002090601f016020900481019282614f955760008555614f5b565b82601f10614fae57805160ff1916838001178555614f5b565b82800160010185558215614f5b579182015b82811115614f5b578251825591602001919060010190614fc0565b5b80821115614e2b5760008155600101614fdc565b803573ffffffffffffffffffffffffffffffffffffffff8116811461501457600080fd5b919050565b60008083601f84011261502b57600080fd5b50813567ffffffffffffffff81111561504357600080fd5b6020830191508360208260051b850101111561505e57600080fd5b9250929050565b60008083601f84011261507757600080fd5b50813567ffffffffffffffff81111561508f57600080fd5b60208301915083602082850101111561505e57600080fd5b600082601f8301126150b857600080fd5b813567ffffffffffffffff8111156150d2576150d2615f0b565b61510360207fffffffffffffffffffffffffffffffffffffffffffffffffffffffffffffffe0601f840116016158df565b81815284602083860101111561511857600080fd5b816020850160208301376000918101602001919091529392505050565b803561ffff8116811461501457600080fd5b803563ffffffff8116811461501457600080fd5b803567ffffffffffffffff8116811461501457600080fd5b803560ff8116811461501457600080fd5b60006020828403121561519657600080fd5b61241182614ff0565b600080602083850312156151b257600080fd5b823567ffffffffffffffff8111156151c957600080fd5b6151d585828601615019565b90969095509350505050565b600080600080604085870312156151f757600080fd5b843567ffffffffffffffff8082111561520f57600080fd5b61521b88838901615019565b9096509450602087013591508082111561523457600080fd5b5061524187828801615019565b95989497509550505050565b60006020828403121561525f57600080fd5b8151801515811461241157600080fd5b60006020828403121561528157600080fd5b5035919050565b6000806040838503121561529b57600080fd5b823591506152ab60208401614ff0565b90509250929050565b600080600080600080600080610100898b0312156152d157600080fd5b883597506152e160208a01614ff0565b9650604089013567ffffffffffffffff8111156152fd57600080fd5b6153098b828c016150a7565b96505061531860608a0161515b565b945061532660808a01615135565b935061533460a08a01615173565b925060c0890135915060e089013590509295985092959890939650565b60008060008060008060008060006101208a8c03121561537057600080fd5b8935985061538060208b01614ff0565b975060408a0135965060608a013567ffffffffffffffff8111156153a357600080fd5b6153af8c828d016150a7565b9650506153be60808b0161515b565b94506153cc60a08b01615135565b93506153da60c08b01615173565b925060e08a013591506101008a013590509295985092959850929598565b600080600080600080600060e0888a03121561541357600080fd5b8735965061542360208901614ff0565b955060408801359450606088013567ffffffffffffffff81111561544657600080fd5b6154528a828b016150a7565b94505061546160808901615173565b925060a0880135915060c0880135905092959891949750929550565b60008060006040848603121561549257600080fd5b83359250602084013567ffffffffffffffff8111156154b057600080fd5b6154bc86828701615065565b9497909650939450505050565b600080604083850312156154dc57600080fd5b50508035926020909101359150565b60008060006060848603121561550057600080fd5b505081359360208301359350604090920135919050565b60008060006060848603121561552c57600080fd5b833592506020840135915061554360408501615147565b90509250925092565b6000806040838503121561555f57600080fd5b823591506152ab60208401615147565b60008060006040848603121561558457600080fd5b61558d8461515b565b9250602084013567ffffffffffffffff8111156154b057600080fd5b600080604083850312156155bc57600080fd5b6155c583615173565b91506152ab60208401614ff0565b6000815180845260005b818110156155f9576020818501810151868301820152016155dd565b8181111561560b576000602083870101525b50601f017fffffffffffffffffffffffffffffffffffffffffffffffffffffffffffffffe0169290920160200192915050565b73ffffffffffffffffffffffffffffffffffffffff891681526020810188905263ffffffff87811660408301528616606082015267ffffffffffffffff858116608083015284811660a0830152831660c082015261010060e082018190526000906156ab838201856155d3565b9b9a5050505050505050505050565b6040815260006156cd60408301856155d3565b905067ffffffffffffffff831660208301529392505050565b67ffffffffffffffff8416815260406020820152816040820152818360608301376000818301606090810191909152601f9092017fffffffffffffffffffffffffffffffffffffffffffffffffffffffffffffffe016010192915050565b600067ffffffffffffffff80891683528088166020840152808716604084015280861660608401525073ffffffffffffffffffffffffffffffffffffffff8416608083015260c060a083015261579d60c08301846155d3565b98975050505050505050565b60008083357fffffffffffffffffffffffffffffffffffffffffffffffffffffffffffffffe18436030181126157de57600080fd5b83018035915067ffffffffffffffff8211156157f957600080fd5b60200191503681900382131561505e57600080fd5b600082357fffffffffffffffffffffffffffffffffffffffffffffffffffffffffffffffc183360301811261584257600080fd5b9190910192915050565b6040805190810167ffffffffffffffff8111828210171561586f5761586f615f0b565b60405290565b604051610100810167ffffffffffffffff8111828210171561586f5761586f615f0b565b60405160e0810167ffffffffffffffff8111828210171561586f5761586f615f0b565b60405160c0810167ffffffffffffffff8111828210171561586f5761586f615f0b565b604051601f82017fffffffffffffffffffffffffffffffffffffffffffffffffffffffffffffffe016810167ffffffffffffffff8111828210171561592657615926615f0b565b604052919050565b600067ffffffffffffffff82111561594857615948615f0b565b5060051b60200190565b6000821982111561596557615965615ead565b500190565b6000826159a0577f4e487b7100000000000000000000000000000000000000000000000000000000600052601260045260246000fd5b500490565b600067ffffffffffffffff808316818516818304811182151516156159cc576159cc615ead565b02949350505050565b6000828210156159e7576159e7615ead565b500390565b600060408083360312156159ff57600080fd5b615a0761584c565b615a1084614ff0565b815260208085013567ffffffffffffffff80821115615a2e57600080fd5b9086019036601f830112615a4157600080fd5b8135615a54615a4f8261592e565b6158df565b8181528481019084860136600585901b870188011115615a7357600080fd5b60005b84811015615b6057813586811115615a8d57600080fd5b8701610100368290037fffffffffffffffffffffffffffffffffffffffffffffffffffffffffffffffe001811315615ac457600080fd5b615acc615875565b8a83013581528c8301358b8201526060808401358a811115615aed57600080fd5b615afb368e838801016150a7565b8f840152506080615b0d81860161515b565b8284015260a09150615b20828601615135565b9083015260c0615b31858201615173565b9183019190915260e0848101359183019190915291909201359082015284529287019290870190600101615a76565b50509486019490945250929695505050505050565b60006040808336031215615b8857600080fd5b615b9061584c565b615b9984614ff0565b815260208085013567ffffffffffffffff80821115615bb757600080fd5b9086019036601f830112615bca57600080fd5b8135615bd8615a4f8261592e565b8181528481019084860136600585901b870188011115615bf757600080fd5b60005b84811015615b6057813586811115615c1157600080fd5b870160e0368290037fffffffffffffffffffffffffffffffffffffffffffffffffffffffffffffffe001811315615c4757600080fd5b615c4f615899565b8a83013581528c83013589811115615c6657600080fd5b615c74368d838701016150a7565b8c830152506060615c8681850161515b565b8e8301526080615c97818601615135565b8284015260a09150615caa828601615173565b9083015260c0848101359183019190915291909201359082015284529287019290870190600101615bfa565b60006040808336031215615ce957600080fd5b615cf161584c565b615cfa84614ff0565b815260208085013567ffffffffffffffff80821115615d1857600080fd5b9086019036601f830112615d2b57600080fd5b8135615d39615a4f8261592e565b8181528481019084860136600585901b870188011115615d5857600080fd5b60005b84811015615b6057813586811115615d7257600080fd5b870160c0368290037fffffffffffffffffffffffffffffffffffffffffffffffffffffffffffffffe001811315615da857600080fd5b615db06158bc565b8a83013581528c8301358b8201526060808401358a811115615dd157600080fd5b615ddf368e838801016150a7565b8f840152506080615df1818601615173565b9183019190915260a0848101359183019190915291909201359082015284529287019290870190600101615d5b565b600181811c90821680615e3457607f821691505b60208210811415615e6e577f4e487b7100000000000000000000000000000000000000000000000000000000600052602260045260246000fd5b50919050565b60007fffffffffffffffffffffffffffffffffffffffffffffffffffffffffffffffff821415615ea657615ea6615ead565b5060010190565b7f4e487b7100000000000000000000000000000000000000000000000000000000600052601160045260246000fd5b7f4e487b7100000000000000000000000000000000000000000000000000000000600052603260045260246000fd5b7f4e487b7100000000000000000000000000000000000000000000000000000000600052604160045260246000fdfea26469706673582212207d0953a6e103144ec1609cf41d1d7aa30a9a5a6157a420483cccb466a69da7a964736f6c63430008060033",
    "immutableReferences": {},
    "source": "// SPDX-License-Identifier: GPL-3.0\n\npragma solidity ^0.8.6;\n\nimport \"@openzeppelin/contracts-upgradeable/utils/math/SafeCastUpgradeable.sol\";\n\nimport \"@openzeppelin/contracts-upgradeable/utils/CountersUpgradeable.sol\";\nimport \"@openzeppelin/contracts-upgradeable/proxy/utils/Initializable.sol\";\nimport \"../access/IAccessRestriction.sol\";\nimport \"../gsn/RelayRecipientV2.sol\";\nimport \"../tree/ITree.sol\";\nimport \"../treasury/IPlanterFund.sol\";\nimport \"../planter/IPlanterV2.sol\";\nimport \"./ITreeFactoryV2.sol\";\n\n/** @title TreeFactory Contract */\ncontract TreeFactoryV2 is Initializable, RelayRecipientV2, ITreeFactoryV2 {\n    using CountersUpgradeable for CountersUpgradeable.Counter;\n    using SafeCastUpgradeable for uint256;\n    using SafeCastUpgradeable for uint32;\n\n    struct TreeData {\n        address planter;\n        uint256 species;\n        uint32 countryCode;\n        uint32 saleType;\n        uint64 treeStatus;\n        uint64 plantDate;\n        uint64 birthDate;\n        string treeSpecs;\n    }\n\n    struct TreeUpdate {\n        string updateSpecs;\n        uint64 updateStatus;\n    }\n\n    struct TempTree {\n        uint64 birthDate;\n        uint64 plantDate;\n        uint64 countryCode;\n        uint64 otherData;\n        address planter;\n        string treeSpecs;\n    }\n\n    /** @notice deprecated */\n    CountersUpgradeable.Counter private _pendingRegularTreeId;\n\n    /** NOTE {isTreeFactory} set inside the initialize to {true} */\n    bool public override isTreeFactory;\n    uint256 public override lastRegualarTreeId;\n    uint256 public override treeUpdateInterval;\n\n    IAccessRestriction public accessRestriction;\n    ITree public treeToken;\n    IPlanterFund public planterFund;\n    IPlanterV2 public planterContract;\n\n    /** NOTE mapping of treeId to TreeData Struct */\n    mapping(uint256 => TreeData) public override trees;\n    /** @notice deprecated */\n    mapping(uint256 => TreeUpdate) public override treeUpdates;\n    /** @notice deprecated */\n    mapping(uint256 => TempTree) public override tempTrees;\n\n    //------- data for v2\n\n    bytes32 public constant PLANT_ASSIGN_TREE_TYPE_HASH =\n        keccak256(\n            \"plantAssignTree(uint256 nonce,uint256 treeId,string treeSpecs,uint64 birthDate,uint16 countryCode)\"\n        );\n\n    bytes32 public constant PLANT_TREE_TYPE_HASH =\n        keccak256(\n            \"plantTree(uint256 nonce,string treeSpecs,uint64 birthDate,uint16 countryCode)\"\n        );\n\n    bytes32 public constant VERIFY_UPDATE_TYPE_HASH =\n        keccak256(\"updateTree(uint256 nonce,uint256 treeId,string treeSpecs)\");\n\n    /** NOTE mapping of planterAddress to nonce */\n    mapping(address => uint256) public override plantersNonce;\n\n    /** NOTE modifier to check msg.sender has admin role */\n    modifier onlyAdmin() {\n        accessRestriction.ifAdmin(msg.sender);\n        _;\n    }\n\n    /** NOTE modifier to check msg.sender has data manager role */\n    modifier onlyDataManager() {\n        accessRestriction.ifDataManager(msg.sender);\n        _;\n    }\n\n    /** NOTE modifier to check msg.sender has verifier role */\n    modifier onlyVerifier() {\n        accessRestriction.ifVerifier(msg.sender);\n        _;\n    }\n\n    /** NOTE modifier for check if function is not paused*/\n    modifier ifNotPaused() {\n        accessRestriction.ifNotPaused();\n        _;\n    }\n\n    /** NOTE modifier to check msg.sender has script role */\n    modifier onlyScript() {\n        accessRestriction.ifScript(msg.sender);\n        _;\n    }\n\n    /** NOTE modifier for check msg.sender has TreejerContract role */\n    modifier onlyTreejerContract() {\n        accessRestriction.ifTreejerContract(msg.sender);\n        _;\n    }\n\n    /** NOTE modifier for check valid address */\n    modifier validAddress(address _address) {\n        require(_address != address(0), \"Invalid address\");\n        _;\n    }\n\n    /// @inheritdoc ITreeFactoryV2\n    function initialize(address _accessRestrictionAddress)\n        external\n        override\n        initializer\n    {\n        IAccessRestriction candidateContract = IAccessRestriction(\n            _accessRestrictionAddress\n        );\n\n        require(candidateContract.isAccessRestriction());\n\n        isTreeFactory = true;\n        accessRestriction = candidateContract;\n        lastRegualarTreeId = 10000;\n        treeUpdateInterval = 604800;\n    }\n\n    /// @inheritdoc ITreeFactoryV2\n    function setContractAddresses(uint8 _selector, address _address)\n        external\n        override\n        onlyAdmin\n        validAddress(_address)\n    {\n        if (_selector == 0) {\n            IPlanterFund candidateContract = IPlanterFund(_address);\n\n            require(candidateContract.isPlanterFund());\n\n            planterFund = candidateContract;\n        } else if (_selector == 1) {\n            IPlanterV2 candidateContract = IPlanterV2(_address);\n\n            require(candidateContract.isPlanter());\n\n            planterContract = candidateContract;\n        } else if (_selector == 2) {\n            ITree candidateContract = ITree(_address);\n\n            require(candidateContract.isTree());\n\n            treeToken = candidateContract;\n        }\n    }\n\n    /// @inheritdoc ITreeFactoryV2\n    function setUpdateInterval(uint256 _seconds)\n        external\n        override\n        ifNotPaused\n        onlyDataManager\n    {\n        treeUpdateInterval = _seconds;\n\n        emit TreeUpdateIntervalChanged();\n    }\n\n    /// @inheritdoc ITreeFactoryV2\n    function listTree(uint256 _treeId, string calldata _treeSpecs)\n        external\n        override\n        ifNotPaused\n        onlyDataManager\n    {\n        _setTreeListingData(_treeId, _treeSpecs);\n    }\n\n    /// @inheritdoc ITreeFactoryV2\n    function listTreeBatch(\n        uint256[] calldata _treeIds,\n        string[] calldata _treeSpecs\n    ) external override ifNotPaused onlyDataManager {\n        require(_treeIds.length == _treeSpecs.length, \"invalid inputs\");\n\n        for (uint256 i = 0; i < _treeIds.length; i++) {\n            _setTreeListingData(_treeIds[i], _treeSpecs[i]);\n        }\n    }\n\n    /// @inheritdoc ITreeFactoryV2\n    function resetTreeStatusBatch(uint256 _startTreeId, uint256 _endTreeId)\n        external\n        override\n        ifNotPaused\n        onlyDataManager\n    {\n        for (uint256 i = _startTreeId; i < _endTreeId; i++) {\n            if (trees[i].treeStatus == 2) {\n                trees[i].treeStatus = 0;\n            }\n        }\n\n        emit TreeStatusBatchReset();\n    }\n\n    /// @inheritdoc ITreeFactoryV2\n    function assignTree(uint256 _treeId, address _planter)\n        external\n        override\n        ifNotPaused\n        onlyDataManager\n    {\n        _setAssigningTreeData(_treeId, _planter);\n    }\n\n    /// @inheritdoc ITreeFactoryV2\n    function assignTreeBatch(\n        uint256[] calldata _treeIds,\n        address[] calldata _planters\n    ) external override ifNotPaused onlyDataManager {\n        require(_treeIds.length == _planters.length, \"invalid inputs\");\n\n        for (uint256 i = 0; i < _treeIds.length; i++) {\n            _setAssigningTreeData(_treeIds[i], _planters[i]);\n        }\n    }\n\n    /// @inheritdoc ITreeFactoryV2\n    function verifyAssignedTreeBatch(\n        VerifyAssignedTreeData[] calldata _verifyAssignedTreeData\n    ) external override ifNotPaused onlyVerifier {\n        bytes32 domainSeparator = _buildDomainSeparator();\n\n        unchecked {\n            for (uint256 i = 0; i < _verifyAssignedTreeData.length; i++) {\n                VerifyAssignedTreeData\n                    memory verifyAssignedTreeData = _verifyAssignedTreeData[i];\n\n                uint256 planterNonce = plantersNonce[\n                    verifyAssignedTreeData.planter\n                ];\n\n                for (\n                    uint256 j = 0;\n                    j < verifyAssignedTreeData.data.length;\n                    j++\n                ) {\n                    PlantAssignedTreeData\n                        memory plantAssignedTreeData = verifyAssignedTreeData\n                            .data[j];\n\n                    _checkSigner(\n                        domainSeparator,\n                        keccak256(\n                            abi.encode(\n                                PLANT_ASSIGN_TREE_TYPE_HASH,\n                                plantAssignedTreeData.nonce,\n                                plantAssignedTreeData.treeId,\n                                keccak256(\n                                    bytes(plantAssignedTreeData.treeSpecs)\n                                ),\n                                plantAssignedTreeData.birthDate,\n                                plantAssignedTreeData.countryCode\n                            )\n                        ),\n                        verifyAssignedTreeData.planter,\n                        plantAssignedTreeData.v,\n                        plantAssignedTreeData.r,\n                        plantAssignedTreeData.s\n                    );\n\n                    require(\n                        planterNonce < plantAssignedTreeData.nonce,\n                        \"planter nonce is incorrect\"\n                    );\n\n                    planterNonce = plantAssignedTreeData.nonce;\n\n                    //-------------------------->update tree data\n\n                    _setVerifyAssignedTreeData(\n                        plantAssignedTreeData.treeId,\n                        verifyAssignedTreeData.planter,\n                        plantAssignedTreeData.treeSpecs,\n                        plantAssignedTreeData.birthDate,\n                        plantAssignedTreeData.countryCode\n                    );\n                }\n                plantersNonce[verifyAssignedTreeData.planter] = planterNonce;\n            }\n        }\n    }\n\n    /// @inheritdoc ITreeFactoryV2\n    function verifyAssignedTree(\n        uint256 _nonce,\n        address _planter,\n        uint256 _treeId,\n        string memory _treeSpecs,\n        uint64 _birthDate,\n        uint16 _countryCode,\n        uint8 _v,\n        bytes32 _r,\n        bytes32 _s\n    ) external override ifNotPaused onlyVerifier {\n        require(plantersNonce[_planter] < _nonce, \"planter nonce is incorrect\");\n\n        _checkSigner(\n            _buildDomainSeparator(),\n            keccak256(\n                abi.encode(\n                    PLANT_ASSIGN_TREE_TYPE_HASH,\n                    _nonce,\n                    _treeId,\n                    keccak256(bytes(_treeSpecs)),\n                    _birthDate,\n                    _countryCode\n                )\n            ),\n            _planter,\n            _v,\n            _r,\n            _s\n        );\n\n        _setVerifyAssignedTreeData(\n            _treeId,\n            _planter,\n            _treeSpecs,\n            _birthDate,\n            _countryCode\n        );\n\n        plantersNonce[_planter] = _nonce;\n    }\n\n    /// @inheritdoc ITreeFactoryV2\n    function verifyUpdateBatch(VerifyUpdateData[] calldata _verifyUpdateData)\n        external\n        override\n        ifNotPaused\n        onlyVerifier\n    {\n        bytes32 domainSeparator = _buildDomainSeparator();\n        unchecked {\n            for (uint256 i = 0; i < _verifyUpdateData.length; i++) {\n                VerifyUpdateData memory verifyUpdateData = _verifyUpdateData[i];\n\n                uint256 planterNonce = plantersNonce[verifyUpdateData.planter];\n\n                for (\n                    uint256 j = 0;\n                    j < verifyUpdateData.updateData.length;\n                    j++\n                ) {\n                    UpdateData memory updateData = verifyUpdateData.updateData[\n                        j\n                    ];\n\n                    require(\n                        planterNonce < updateData.nonce,\n                        \"planter nonce is incorrect\"\n                    );\n\n                    planterNonce = updateData.nonce;\n\n                    _checkSigner(\n                        domainSeparator,\n                        keccak256(\n                            abi.encode(\n                                VERIFY_UPDATE_TYPE_HASH,\n                                updateData.nonce,\n                                updateData.treeId,\n                                keccak256(bytes(updateData.treeSpecs))\n                            )\n                        ),\n                        verifyUpdateData.planter,\n                        updateData.v,\n                        updateData.r,\n                        updateData.s\n                    );\n\n                    _setVerifyUpdateData(\n                        updateData.treeId,\n                        verifyUpdateData.planter,\n                        updateData.treeSpecs\n                    );\n                }\n\n                plantersNonce[verifyUpdateData.planter] = planterNonce;\n            }\n        }\n    }\n\n    /// @inheritdoc ITreeFactoryV2\n    function verifyUpdate(\n        uint256 _nonce,\n        address _planter,\n        uint256 _treeId,\n        string memory _treeSpecs,\n        uint8 _v,\n        bytes32 _r,\n        bytes32 _s\n    ) external override ifNotPaused onlyVerifier {\n        require(plantersNonce[_planter] < _nonce, \"planter nonce is incorrect\");\n\n        _checkSigner(\n            _buildDomainSeparator(),\n            keccak256(\n                abi.encode(\n                    VERIFY_UPDATE_TYPE_HASH,\n                    _nonce,\n                    _treeId,\n                    keccak256(bytes(_treeSpecs))\n                )\n            ),\n            _planter,\n            _v,\n            _r,\n            _s\n        );\n\n        _setVerifyUpdateData(_treeId, _planter, _treeSpecs);\n\n        plantersNonce[_planter] = _nonce;\n    }\n\n    /// @inheritdoc ITreeFactoryV2\n    function manageSaleType(uint256 _treeId, uint32 _saleType)\n        external\n        override\n        onlyTreejerContract\n        returns (uint32)\n    {\n        if (treeToken.exists(_treeId)) {\n            return 1;\n        }\n\n        TreeData storage treeData = trees[_treeId];\n\n        uint32 currentSaleType = treeData.saleType;\n\n        if (currentSaleType == 0) {\n            treeData.saleType = _saleType;\n            if (treeData.treeStatus == 0) {\n                treeData.treeStatus = 2;\n            }\n        }\n\n        return currentSaleType;\n    }\n\n    /// @inheritdoc ITreeFactoryV2\n    function mintAssignedTree(uint256 _treeId, address _funder)\n        external\n        override\n        onlyTreejerContract\n    {\n        trees[_treeId].saleType = 0;\n        treeToken.mint(_funder, _treeId);\n    }\n\n    /// @inheritdoc ITreeFactoryV2\n    function resetSaleType(uint256 _treeId)\n        external\n        override\n        onlyTreejerContract\n    {\n        trees[_treeId].saleType = 0;\n    }\n\n    /// @inheritdoc ITreeFactoryV2\n    function resetSaleTypeBatch(\n        uint256 _startTreeId,\n        uint256 _endTreeId,\n        uint256 _saleType\n    ) external override onlyTreejerContract {\n        for (uint256 i = _startTreeId; i < _endTreeId; i++) {\n            TreeData storage treeData = trees[i];\n\n            if (treeData.saleType == _saleType) {\n                treeData.saleType = 0;\n\n                if (treeData.treeStatus == 2) {\n                    treeData.planter = address(0);\n                }\n            }\n        }\n    }\n\n    /// @inheritdoc ITreeFactoryV2\n    function manageSaleTypeBatch(\n        uint256 _startTreeId,\n        uint256 _endTreeId,\n        uint32 _saleType\n    ) external override onlyTreejerContract returns (bool) {\n        for (uint256 i = _startTreeId; i < _endTreeId; i++) {\n            if (trees[i].saleType > 0 || treeToken.exists(i)) {\n                return false;\n            }\n        }\n        for (uint256 j = _startTreeId; j < _endTreeId; j++) {\n            TreeData storage treeData = trees[j];\n\n            treeData.saleType = _saleType;\n\n            if (treeData.treeStatus == 0) {\n                treeData.treeStatus = 2;\n            }\n        }\n        return true;\n    }\n\n    /// @inheritdoc ITreeFactoryV2\n    function updateLastRegualarTreeId(uint256 _lastRegualarTreeId)\n        external\n        override\n        ifNotPaused\n        onlyDataManager\n    {\n        require(\n            _lastRegualarTreeId > lastRegualarTreeId,\n            \"Invalid lastRegualarTreeId\"\n        );\n\n        lastRegualarTreeId = _lastRegualarTreeId;\n\n        emit LastRegualarTreeIdUpdated(_lastRegualarTreeId);\n    }\n\n    /// @inheritdoc ITreeFactoryV2\n    function verifyTreeBatch(VerifyTreeData[] calldata _verifyTreeData)\n        external\n        override\n        ifNotPaused\n        onlyVerifier\n    {\n        uint256 tempLastRegularTreeId = lastRegualarTreeId;\n\n        bytes32 domainSeparator = _buildDomainSeparator();\n\n        unchecked {\n            for (uint256 i = 0; i < _verifyTreeData.length; i++) {\n                VerifyTreeData memory verifyTreeData = _verifyTreeData[i];\n\n                require(\n                    planterContract.manageTreePermissionBatch(\n                        verifyTreeData.planter,\n                        verifyTreeData.data.length.toUint32()\n                    ),\n                    \"Permission denied\"\n                );\n\n                uint256 planterNonce = plantersNonce[verifyTreeData.planter];\n\n                for (uint256 j = 0; j < verifyTreeData.data.length; j++) {\n                    PlantTreeData memory plantTreeData = verifyTreeData.data[j];\n\n                    require(\n                        planterNonce < plantTreeData.nonce,\n                        \"planter nonce is incorrect\"\n                    );\n\n                    planterNonce = plantTreeData.nonce;\n\n                    _checkSigner(\n                        domainSeparator,\n                        keccak256(\n                            abi.encode(\n                                PLANT_TREE_TYPE_HASH,\n                                plantTreeData.nonce,\n                                keccak256(bytes(plantTreeData.treeSpecs)),\n                                plantTreeData.birthDate,\n                                plantTreeData.countryCode\n                            )\n                        ),\n                        verifyTreeData.planter,\n                        plantTreeData.v,\n                        plantTreeData.r,\n                        plantTreeData.s\n                    );\n\n                    tempLastRegularTreeId = _setVerifyTreeData(\n                        tempLastRegularTreeId + 1,\n                        plantTreeData.countryCode,\n                        plantTreeData.birthDate,\n                        plantTreeData.treeSpecs,\n                        verifyTreeData.planter\n                    );\n                }\n\n                plantersNonce[verifyTreeData.planter] = planterNonce;\n            }\n        }\n\n        lastRegualarTreeId = tempLastRegularTreeId;\n    }\n\n    /// @inheritdoc ITreeFactoryV2\n    function verifyTree(\n        uint256 _nonce,\n        address _planter,\n        string memory _treeSpecs,\n        uint64 _birthDate,\n        uint16 _countryCode,\n        uint8 _v,\n        bytes32 _r,\n        bytes32 _s\n    ) external override ifNotPaused onlyVerifier {\n        require(planterContract.manageTreePermission(_planter));\n\n        require(plantersNonce[_planter] < _nonce, \"planter nonce is incorrect\");\n        bytes32 domainSeparator = _buildDomainSeparator();\n\n        _checkSigner(\n            domainSeparator,\n            keccak256(\n                abi.encode(\n                    PLANT_TREE_TYPE_HASH,\n                    _nonce,\n                    keccak256(bytes(_treeSpecs)),\n                    _birthDate,\n                    _countryCode\n                )\n            ),\n            _planter,\n            _v,\n            _r,\n            _s\n        );\n\n        lastRegualarTreeId = _setVerifyTreeData(\n            lastRegualarTreeId + 1,\n            _countryCode,\n            _birthDate,\n            _treeSpecs,\n            _planter\n        );\n\n        plantersNonce[_planter] = _nonce;\n    }\n\n    /// @inheritdoc ITreeFactoryV2\n    function mintTree(uint256 _lastFundedTreeId, address _funder)\n        external\n        override\n        onlyTreejerContract\n        returns (uint256)\n    {\n        uint256 tempLastFundedTreeId = _lastFundedTreeId + 1;\n\n        bool flag = (trees[tempLastFundedTreeId].treeStatus == 0 &&\n            trees[tempLastFundedTreeId].saleType == 0) ||\n            (trees[tempLastFundedTreeId].treeStatus > 3 &&\n                trees[tempLastFundedTreeId].saleType == 4);\n\n        while (!flag) {\n            tempLastFundedTreeId = tempLastFundedTreeId + 1;\n\n            flag =\n                (trees[tempLastFundedTreeId].treeStatus == 0 &&\n                    trees[tempLastFundedTreeId].saleType == 0) ||\n                (trees[tempLastFundedTreeId].treeStatus > 3 &&\n                    trees[tempLastFundedTreeId].saleType == 4);\n        }\n\n        trees[tempLastFundedTreeId].saleType = 0;\n\n        treeToken.mint(_funder, tempLastFundedTreeId);\n\n        return tempLastFundedTreeId;\n    }\n\n    /// @inheritdoc ITreeFactoryV2\n    function mintTreeById(uint256 _treeId, address _funder)\n        external\n        override\n        onlyTreejerContract\n    {\n        TreeData storage treeData = trees[_treeId];\n\n        require(\n            treeData.treeStatus > 3 && treeData.saleType == 4,\n            \"Tree not planted\"\n        );\n\n        treeData.saleType = 0;\n\n        treeToken.mint(_funder, _treeId);\n    }\n\n    /// @inheritdoc ITreeFactoryV2\n    function updateTreeSpecs(uint64 _treeId, string calldata _treeSpecs)\n        external\n        override\n        ifNotPaused\n        onlyScript\n    {\n        trees[_treeId].treeSpecs = _treeSpecs;\n\n        emit TreeSpecsUpdated(_treeId, _treeSpecs);\n    }\n\n    /**\n     * @dev Returns an Ethereum Signed Typed Data, created from a\n     * `domainSeparator` and a `structHash`. This produces hash corresponding\n     * to the one signed with the\n     * https://eips.ethereum.org/EIPS/eip-712[`eth_signTypedData`]\n     * JSON-RPC method as part of EIP-712.\n     *\n     */\n    function _toTypedDataHash(bytes32 _domainSeperator, bytes32 _structHash)\n        private\n        pure\n        returns (bytes32)\n    {\n        return\n            keccak256(\n                abi.encodePacked(\"\\x19\\x01\", _domainSeperator, _structHash)\n            );\n    }\n\n    /**\n     * @dev check if the given planter is the signer of given signature or not\n     */\n    function _checkSigner(\n        bytes32 _domainSeparator,\n        bytes32 _hashStruct,\n        address _planter,\n        uint8 _v,\n        bytes32 _r,\n        bytes32 _s\n    ) private pure {\n        bytes32 hash = _toTypedDataHash(_domainSeparator, _hashStruct);\n\n        address signer = ecrecover(hash, _v, _r, _s);\n\n        require(signer == _planter, \"TreeFactory: invalid signature\");\n    }\n\n    /**\n     * @dev return domain separator\n     */\n    function _buildDomainSeparator() private view returns (bytes32) {\n        return\n            keccak256(\n                abi.encode(\n                    keccak256(\n                        \"EIP712Domain(string name,string version,uint256 chainId,address verifyingContract)\"\n                    ),\n                    keccak256(bytes(\"Treejer Protocol\")),\n                    keccak256(bytes(\"1\")),\n                    block.chainid,\n                    address(this)\n                )\n            );\n    }\n\n    /**\n     * @dev set data for listing tree\n     */\n    function _setTreeListingData(uint256 _treeId, string calldata _treeSpecs)\n        private\n    {\n        TreeData storage treeData = trees[_treeId];\n\n        require(treeData.treeStatus == 0, \"Duplicate tree\");\n\n        treeData.treeStatus = 2;\n        treeData.treeSpecs = _treeSpecs;\n\n        emit TreeListed(_treeId);\n    }\n\n    /**\n     * @dev assign planter for a tree\n     */\n    function _setAssigningTreeData(uint256 _treeId, address _planter) private {\n        TreeData storage treeData = trees[_treeId];\n\n        require(treeData.treeStatus == 2, \"Invalid tree\");\n\n        require(planterContract.canAssignTree(_planter), \"Not allowed planter\");\n\n        treeData.planter = _planter;\n\n        emit TreeAssigned(_treeId);\n    }\n\n    /**\n     * @dev check planting permission and set data for verified tree\n     */\n    function _setVerifyAssignedTreeData(\n        uint256 _treeId,\n        address _planter,\n        string memory _treeSpecs,\n        uint64 _birthDate,\n        uint16 _countryCode\n    ) private {\n        TreeData storage treeData = trees[_treeId];\n\n        require(treeData.treeStatus == 2, \"Invalid tree status\");\n\n        //----------> check can plant\n        require(\n            planterContract.manageAssignedTreePermission(\n                _planter,\n                treeData.planter\n            ),\n            \"Permission denied\"\n        );\n\n        if (_planter != treeData.planter) {\n            treeData.planter = _planter;\n        }\n\n        treeData.countryCode = _countryCode;\n        treeData.birthDate = _birthDate;\n        treeData.plantDate = block.timestamp.toUint64();\n        treeData.treeStatus = 4;\n\n        treeData.treeSpecs = _treeSpecs;\n\n        emit AssignedTreeVerified(_treeId);\n    }\n\n    /**\n     * @dev check permissions and set data for verified tree\n     * and based on the current time of verifing and plant date, age of tree\n     * calculated and set as the treeStatus and if a token exist for\n     * that tree (minted before) planter of tree funded\n     * based on calculated tree status\n     */\n    function _setVerifyUpdateData(\n        uint256 _treeId,\n        address _planter,\n        string memory _treeSpecs\n    ) private {\n        TreeData storage treeData = trees[_treeId];\n\n        require(treeData.planter == _planter, \"Not owned tree\");\n\n        require(treeData.treeStatus > 3, \"Tree not planted\");\n\n        require(\n            block.timestamp >=\n                treeData.plantDate +\n                    ((treeData.treeStatus * 3600) + treeUpdateInterval),\n            \"Early update\"\n        );\n\n        uint32 age = ((block.timestamp - treeData.plantDate) / 3600).toUint32();\n\n        if (age > treeData.treeStatus) {\n            treeData.treeStatus = age;\n        }\n\n        treeData.treeSpecs = _treeSpecs;\n\n        if (treeToken.exists(_treeId)) {\n            planterFund.updatePlanterTotalClaimed(\n                _treeId,\n                treeData.planter,\n                treeData.treeStatus\n            );\n        }\n\n        emit TreeUpdatedVerified(_treeId);\n    }\n\n    /**\n     * @dev verifying plant of regular tree and find an available treeId and set data for it\n     */\n\n    function _setVerifyTreeData(\n        uint256 _tempLastRegularTreeId,\n        uint16 _countryCode,\n        uint64 _birthDate,\n        string memory _treeSpecs,\n        address _planter\n    ) private returns (uint256) {\n        while (\n            !(trees[_tempLastRegularTreeId].treeStatus == 0 &&\n                trees[_tempLastRegularTreeId].saleType == 0)\n        ) {\n            _tempLastRegularTreeId += 1;\n        }\n\n        TreeData storage treeData = trees[_tempLastRegularTreeId];\n\n        treeData.plantDate = block.timestamp.toUint64();\n        treeData.countryCode = uint16(_countryCode);\n        treeData.birthDate = _birthDate;\n        treeData.treeSpecs = _treeSpecs;\n        treeData.planter = _planter;\n        treeData.treeStatus = 4;\n\n        if (!treeToken.exists(_tempLastRegularTreeId)) {\n            treeData.saleType = 4;\n        }\n\n        emit TreeVerified(_tempLastRegularTreeId);\n\n        return _tempLastRegularTreeId;\n    }\n}\n",
    "sourcePath": "/home/ali/Desktop/work/treejer/contract/contracts/tree/TreeFactoryV2.sol",
    "compiler": {
        "name": "solc",
        "version": "0.8.6+commit.11564f7e.Emscripten.clang"
    },
    "schemaVersion": "3.4.6",
    "updatedAt": "2023-02-11T12:59:33.403Z",
    "networkType": "ethereum",
    "devdoc": {
        "kind": "dev",
        "methods": {
            "assignTree(uint256,address)": {
                "details": "admin assign an existing tree to planter NOTE tree must be not planted NOTE emit a {TreeAssigned} event",
                "params": {
                    "_planter": "assignee planter",
                    "_treeId": "id of tree to assign"
                }
            },
            "assignTreeBatch(uint256[],address[])": {
                "details": "admin assign batch of existing trees to planters NOTE tree must be not planted NOTE emit a {TreeAssigned} event",
                "params": {
                    "_planters": "assignee planters",
                    "_treeIds": "id of trees to assign"
                }
            },
            "initialize(address)": {
                "details": "initialize AccessRestriction contract,lastRegualarTreeId,treeUpdateInterval and set true for isTreeFactory",
                "params": {
                    "_accessRestrictionAddress": "set to the address of AccessRestriction contract"
                }
            },
            "listTree(uint256,string)": {
                "details": "admin list tree NOTE emit a {TreeListed} event",
                "params": {
                    "_treeId": "id of tree to list",
                    "_treeSpecs": "tree specs"
                }
            },
            "listTreeBatch(uint256[],string[])": {
                "details": "admin list batch of trees NOTE emit {TreeListed} event",
                "params": {
                    "_treeIds": "list of tree ids",
                    "_treeSpecs": "list of tree specs"
                }
            },
            "manageSaleType(uint256,uint32)": {
                "details": "check if a tree is free to take part in sale and set {_saleType} to saleType of tree when tree is not in use",
                "params": {
                    "_saleType": "saleType for tree",
                    "_treeId": "id of tree to check"
                },
                "returns": {
                    "_0": "0 if a tree ready for a sale and 1 if a tree is in use or minted before"
                }
            },
            "manageSaleTypeBatch(uint256,uint256,uint32)": {
                "details": "set {_saleType} to saleType of trees in range {_startTreeId} and {_endTreeId}",
                "params": {
                    "_endTreeId": "_ending tree id to set saleType value",
                    "_saleType": "saleType value",
                    "_startTreeId": "starting tree id to set saleType value"
                },
                "returns": {
                    "_0": "true if all trees saleType value successfully set and false otherwise"
                }
            },
            "mintAssignedTree(uint256,address)": {
                "details": "mint a tree to funder and set saleType to 0",
                "params": {
                    "_funder": "address of funder to mint tree for",
                    "_treeId": "id of tree to mint"
                }
            },
            "mintTree(uint256,address)": {
                "details": "mint a tree to funder of tree",
                "params": {
                    "_funder": "funder of a new tree sold in Regular",
                    "_lastFundedTreeId": "The last tree funded in the regular sale"
                },
                "returns": {
                    "_0": "the last tree funded after update"
                }
            },
            "mintTreeById(uint256,address)": {
                "details": "mint an already planted tree with id to funder",
                "params": {
                    "_funder": "address of funder",
                    "_treeId": "tree id to mint"
                }
            },
            "resetSaleType(uint256)": {
                "details": "reset saleType value of tree",
                "params": {
                    "_treeId": "id of tree to reset saleType value"
                }
            },
            "resetSaleTypeBatch(uint256,uint256,uint256)": {
                "details": "reset saleType of trees in range of {_startTreeId} and {_endTreeId} with saleType value of {_saleType}",
                "params": {
                    "_endTreeId": "ending tree id to reset saleType",
                    "_saleType": "saleType value of trees",
                    "_startTreeId": "starting tree id to reset saleType"
                }
            },
            "resetTreeStatusBatch(uint256,uint256)": {
                "details": "admin reset treeStatus of a given range to 0 NOTE emit {TreeStatusBatchReset} event",
                "params": {
                    "_endTreeId": "end treeId",
                    "_startTreeId": "start treeId"
                }
            },
            "setContractAddresses(uint8,address)": {
                "details": "admin set new address for given contract",
                "params": {
                    "_address": "new address for contract",
                    "_selector": "contract selector"
                }
            },
            "setUpdateInterval(uint256)": {
                "details": "admin set the minimum time to send next update request NOTE emit an {TreeUpdateIntervalChanged} event",
                "params": {
                    "_seconds": "time to next update request"
                }
            },
            "updateLastRegualarTreeId(uint256)": {
                "details": "admin set new value for lastRegualarTreeId NOTE emit a {LastRegualarTreeIdUpdated} event",
                "params": {
                    "_lastRegualarTreeId": "new value of lastRegualarTreeId"
                }
            },
            "updateTreeSpecs(uint64,string)": {
                "details": "script role update treeSpecs NOTE emit a {TreeSpecsUpdated} event",
                "params": {
                    "_treeId": "id of tree to update treeSpecs",
                    "_treeSpecs": "new tree specs"
                }
            },
            "verifyAssignedTree(uint256,address,uint256,string,uint64,uint16,uint8,bytes32,bytes32)": {
                "details": "allowed verifier can verify plant for assigned tree using signature.",
                "params": {
                    "_birthDate": "birthDate of tree",
                    "_countryCode": "countryCode of tree",
                    "_nonce": "nonce value that signature created with",
                    "_planter": "address of planter",
                    "_r": "signature data",
                    "_s": "signature data",
                    "_treeId": "id of tree to verify",
                    "_treeSpecs": "treeSpecs data",
                    "_v": "signature data"
                }
            },
            "verifyAssignedTreeBatch((address,(uint256,uint256,string,uint64,uint16,uint8,bytes32,bytes32)[])[])": {
                "details": "allowed verifier can verify batch of plant for assigned trees using signature.",
                "params": {
                    "_verifyAssignedTreeData": "array of verifyAssignedTree data including signature{v,r,s} and planting data"
                }
            },
            "verifyTree(uint256,address,string,uint64,uint16,uint8,bytes32,bytes32)": {
                "details": "allowed verifier can verify plant for regular tree using signature.",
                "params": {
                    "_birthDate": "birthDate of tree",
                    "_countryCode": "countryCode of tree",
                    "_nonce": "nonce value that signature created with",
                    "_planter": "address of planter",
                    "_r": "signature data",
                    "_s": "signature data",
                    "_treeSpecs": "treeSpecs data",
                    "_v": "signature data"
                }
            },
            "verifyTreeBatch((address,(uint256,string,uint64,uint16,uint8,bytes32,bytes32)[])[])": {
                "details": "allowed verifier can verify batch of plants for regular trees using signature.",
                "params": {
                    "_verifyTreeData": "array of verifyTree data including signature{v,r,s} and planting data"
                }
            },
            "verifyUpdate(uint256,address,uint256,string,uint8,bytes32,bytes32)": {
                "details": "allowed verifier can verify update for a tree using signature. NOTE based on the current time of verifing and plant date, age of tree calculated and set as the treeStatus NOTE if a token exist for that tree (minted before) planter of tree funded based on calculated tree status",
                "params": {
                    "_nonce": "nonce value that signature created with",
                    "_planter": "address of planter",
                    "_r": "signature data",
                    "_s": "signature data",
                    "_treeId": "id of tree to verify update",
                    "_treeSpecs": "treeSpecs data",
                    "_v": "signature data"
                }
            },
            "verifyUpdateBatch((address,(uint256,uint256,string,uint8,bytes32,bytes32)[])[])": {
                "details": "allowed verifier can verify batch of updates for trees using signature. NOTE based on the current time of verifing and plant date, age of tree calculated and set as the treeStatus NOTE if a token exist for that tree (minted before) planter of tree funded based on calculated tree status",
                "params": {
                    "_verifyUpdateData": "array of verifyAssignedTree data including signature{v,r,s} and planting data"
                }
            }
        },
        "stateVariables": {
            "lastRegualarTreeId": {
                "return": "lastRegularTreeId ",
                "returns": {
                    "_0": "lastRegularTreeId "
                }
            },
            "treeUpdateInterval": {
                "return": "minimum time to send next update request ",
                "returns": {
                    "_0": "minimum time to send next update request "
                }
            }
        },
        "title": "TreeFactory Contract ",
        "version": 1
    },
    "userdoc": {
        "kind": "user",
        "methods": {
            "isTreeFactory()": {
                "notice": "NOTE {isTreeFactory} set inside the initialize to {true} "
            },
            "plantersNonce(address)": {
                "notice": "NOTE mapping of planterAddress to nonce "
            },
            "tempTrees(uint256)": {
                "notice": "deprecated "
            },
            "treeUpdates(uint256)": {
                "notice": "deprecated "
            },
            "trees(uint256)": {
                "notice": "NOTE mapping of treeId to TreeData Struct "
            }
        },
        "version": 1
    }
}